:020000040800F2
:10000000005000203D480008191B00081D1B000877
:10001000211B0008251B0008291B00080000000008
:100020000000000000000000000000002D1B000880
:10003000311B000800000000351B0008391B0008B8
:10004000854800088548000885480008854800085C
:10005000854800088548000885480008854800084C
:10006000854800088548000885480008854800083C
:10007000854800088548000885480008854800082C
:10008000854800088548000885480008854800081C
:10009000854800088548000885480008854800080C
:1000A00085480008854800088548000885480008FC
:1000B00085480008854800083D1B00088548000861
:1000C00085480008854800088548000885480008DC
:1000D00085480008491B0008854800088548000835
:1000E0008548000885480008854800080000000091
:1000F0000000000000000000000000000000000000
:0C01000000000000000000005FF808F1A3
:1001100010B5054C237833B9044B13B10448AFF341
:1001200000800123237010BDE001002000000000CA
:10013000C893000808B5034B1BB103490348AFF34C
:10014000008008BD00000000E4010020C893000802
:10015000034613F8012B002AFBD1181A0138704707
:1001600081F0004102E000BF83F0004330B54FEA68
:1001700041044FEA430594EA050F08BF90EA020FD5
:100180001FBF54EA000C55EA020C7FEA645C7FEA68
:10019000655C00F0E2804FEA5454D4EB5555B8BF8B
:1001A0006D420CDD2C4480EA020281EA030382EAFC
:1001B000000083EA010180EA020281EA0303362D8E
:1001C00088BF30BD11F0004F4FEA01314FF4801C61
:1001D0004CEA113102D0404261EB410113F0004F73
:1001E0004FEA03334CEA133302D0524263EB43032A
:1001F00094EA050F00F0A780A4F10104D5F1200EC8
:100200000DDB02FA0EFC22FA05F2801841F1000122
:1002100003FA0EF2801843FA05F359410EE0A5F1F6
:1002200020050EF1200E012A03FA0EFC28BF4CF027
:10023000020C43FA05F3C01851EBE37101F00045DD
:1002400007D54FF0000EDCF1000C7EEB00006EEBEA
:100250000101B1F5801F1BD3B1F5001F0CD3490874
:100260005FEA30004FEA3C0C04F101044FEA4452CB
:1002700012F5800F80F09A80BCF1004F08BF5FEA52
:10028000500C50F1000041EB045141EA050130BD32
:100290005FEA4C0C404141EB0101013C28BFB1F544
:1002A000801FE9D291F0000F04BF01460020B1FA8F
:1002B00081F308BF2033A3F10B03B3F120020CDA62
:1002C0000C3208DD02F1140CC2F10C0201FA0CF040
:1002D00021FA02F10CE002F11402D8BFC2F1200CA5
:1002E00001FA02F120FA0CFCDCBF41EA0C0190405B
:1002F000E41AA2BF01EB0451294330BD6FEA0404A4
:100300001F3C1CDA0C340EDC04F11404C4F120028E
:1003100020FA04F001FA02F340EA030021FA04F3A0
:1003200045EA030130BDC4F10C04C4F1200220FAF7
:1003300002F001FA04F340EA0300294630BD21FA35
:1003400004F0294630BD94F0000F83F4801306BFFB
:1003500081F480110134013D4EE77FEA645C18BFEF
:100360007FEA655C29D094EA050F08BF90EA020F86
:1003700005D054EA000C04BF1946104630BD91EA7E
:10038000030F1EBF0021002030BD5FEA545C05D181
:100390004000494128BF41F0004130BD14F58004C0
:1003A0003CBF01F5801130BD01F0004545F0FE4134
:1003B00041F470014FF0000030BD7FEA645C1ABF69
:1003C000194610467FEA655C1CBF0B46024650EAA0
:1003D000013406BF52EA033591EA030F41F40021CC
:1003E00030BD00BF90F0000F04BF0021704730B552
:1003F0004FF4806404F132044FF000054FF0000127
:1004000050E700BF90F0000F04BF0021704730B5E7
:100410004FF4806404F1320410F0004548BF4042BC
:100420004FF000013EE700BF42004FEAE2014FEA11
:1004300031014FEA02701FBF12F07F4393F07F4FEC
:1004400081F06051704732F07F4208BF704793F0EF
:100450007F4F04BF41F40021704730B54FF4607402
:1004600001F0004521F000411CE700BF50EA010205
:1004700008BF704730B54FF000050AE050EA0102AE
:1004800008BF704730B511F0004502D5404261EB1E
:1004900041014FF4806404F132045FEA915C3FF45F
:1004A000D8AE4FF003025FEADC0C18BF03325FEAFC
:1004B000DC0C18BF033202EBDC02C2F1200300FAAD
:1004C00003FC20FA02F001FA03FE40EA0E0021FAD2
:1004D00002F11444BDE600BF70B54FF0FF0C4CF4C0
:1004E000E06C1CEA11541DBF1CEA135594EA0C0F72
:1004F00095EA0C0F00F0DEF82C4481EA030621EAAD
:100500004C5123EA4C5350EA013518BF52EA0335E7
:1005100041F4801143F4801338D0A0FB02CE4FF099
:100520000005E1FB02E506F00042E0FB03E54FF0C9
:100530000006E1FB03569CF0000F18BF4EF0010EC1
:10054000A4F1FF04B6F5007F64F5407404D25FEABD
:100550004E0E6D4146EB060642EAC62141EA555170
:100560004FEAC52040EA5E504FEACE2EB4F1FD0CB2
:1005700088BFBCF5E06F1ED8BEF1004F08BF5FEA30
:10058000500E50F1000041EB045170BD06F00046E2
:1005900046EA010140EA020081EA0301B4EB5C048F
:1005A000C2BFD4EB0C0541EA045170BD41F4801187
:1005B0004FF0000E013C00F3AB8014F1360FDEBFAC
:1005C000002001F0004170BDC4F10004203C35DA88
:1005D0000C341BDC04F11404C4F1200500FA05F30B
:1005E00020FA04F001FA05F240EA020001F00042AC
:1005F00021F0004110EBD37021FA04F642EB060122
:100600005EEA430E08BF20EAD37070BDC4F10C044B
:10061000C4F1200500FA04F320FA05F001FA04F20F
:1006200040EA020001F0004110EBD37041F10001FB
:100630005EEA430E08BF20EAD37070BDC4F1200506
:1006400000FA05F24EEA020E20FA04F301FA05F26E
:1006500043EA020321FA04F001F0004121FA04F216
:1006600020EA020000EBD3705EEA430E08BF20EAE6
:10067000D37070BD94F0000F0FD101F00046400020
:1006800041EB010111F4801F08BF013CF7D041EAA2
:10069000060195F0000F18BF704703F000465200A6
:1006A00043EB030313F4801F08BF013DF7D043EA77
:1006B0000603704794EA0C0F0CEA135518BF95EA2D
:1006C0000C0F0CD050EA410618BF52EA4306D1D1B4
:1006D00081EA030101F000414FF0000070BD50EAD3
:1006E000410606BF1046194652EA430619D094EA5D
:1006F0000C0F02D150EA013613D195EA0C0F05D147
:1007000052EA03361CBF104619460AD181EA03019A
:1007100001F0004141F0FE4141F470014FF0000052
:1007200070BD41F0FE4141F4780170BD70B54FF0ED
:10073000FF0C4CF4E06C1CEA11541DBF1CEA13556D
:1007400094EA0C0F95EA0C0F00F0A7F8A4EB05044F
:1007500081EA030E52EA03354FEA013100F0888046
:100760004FEA03334FF0805545EA131343EA12630F
:100770004FEA022245EA111545EA10654FEA0026C4
:100780000EF000419D4208BF964244F1FD0404F57D
:10079000407402D25B084FEA3202B61A65EB0305D9
:1007A0005B084FEA32024FF480104FF4002CB6EB96
:1007B000020E75EB030E22BFB61A754640EA0C0016
:1007C0005B084FEA3202B6EB020E75EB030E22BF56
:1007D000B61A754640EA5C005B084FEA3202B6EB97
:1007E000020E75EB030E22BFB61A754640EA9C0056
:1007F0005B084FEA3202B6EB020E75EB030E22BF26
:10080000B61A754640EADC0055EA060E18D04FEAE3
:10081000051545EA16754FEA06164FEAC30343EA83
:1008200052734FEAC2025FEA1C1CC0D111F4801F50
:100830000BD141EA00014FF000004FF0004CB6E749
:1008400011F4801F04BF01430020B4F1FD0C88BFE8
:10085000BCF5E06F3FF6AFAEB5EB030C04BFB6EBF3
:10086000020C5FEA500C50F1000041EB045170BDE6
:100870000EF0004E4EEA113114EB5C04C2BFD4EB13
:100880000C0541EA045170BD41F480114FF0000E97
:10089000013C90E645EA060E8DE60CEA135594EA13
:1008A0000C0F08BF95EA0C0F3FF43BAF94EA0C0F16
:1008B0000AD150EA01347FF434AF95EA0C0F7FF48B
:1008C00025AF104619462CE795EA0C0F06D152EADF
:1008D00003353FF4FDAE1046194622E750EA4106C3
:1008E00018BF52EA43067FF4C5AE50EA41047FF4D4
:1008F0000DAF52EA43057FF4EBAE12E74FF0FF3C39
:1009000006E000BF4FF0010C02E000BF4FF0010C09
:100910004DF804CD4FEA410C7FEA6C5C4FEA430C82
:1009200018BF7FEA6C5C1BD001B050EA410C0CBFD1
:1009300052EA430C91EA030F02BF90EA020F002033
:10094000704710F1000F91EA030F58BF994208BF9A
:1009500090422CBFD8176FEAE37040F00100704757
:100960004FEA410C7FEA6C5C02D150EA013C07D1AE
:100970004FEA430C7FEA6C5CD6D152EA033CD3D0F9
:100980005DF8040B704700BF8446104662468C46F3
:100990001946634600E000BF01B5FFF7B7FF002826
:1009A00048BF10F1000F01BD4DF808EDFFF7F4FF4F
:1009B0000CBF012000205DF808FB00BF4DF808EDDA
:1009C000FFF7EAFF34BF012000205DF808FB00BFFD
:1009D0004DF808EDFFF7E0FF94BF012000205DF81F
:1009E00008FB00BF4DF808EDFFF7CEFF94BF0120D4
:1009F00000205DF808FB00BF4DF808EDFFF7C4FFCD
:100A000034BF012000205DF808FB00BF4FEA410C15
:100A10007FEA6C5C02D150EA013C0AD14FEA430CF8
:100A20007FEA6C5C02D152EA033C02D14FF0000035
:100A300070474FF0010070474FEA410212F5001273
:100A400015D211D56FF47873B3EB625212D94FEA15
:100A5000C12343F0004343EA505311F0004F23FAFF
:100A600002F018BF404270474FF00000704750EA54
:100A7000013005D111F0004008BF6FF00040704711
:100A80004FF00000704700BF80F0004002E000BF60
:100A900081F0004142001FBF5FEA410392EA030F69
:100AA0007FEA226C7FEA236C6AD04FEA1262D2EBB3
:100AB0001363C1BFD218414048404140B8BF5B42B8
:100AC000192B88BF704710F0004F40F4000020F051
:100AD0007F4018BF404211F0004F41F4000121F067
:100AE0007F4118BF494292EA030F3FD0A2F10102B1
:100AF00041FA03FC10EB0C00C3F1200301FA03F1EF
:100B000000F0004302D5494260EB4000B0F5000F11
:100B100013D3B0F1807F06D340084FEA310102F1D0
:100B20000102FE2A51D2B1F1004F40EBC25008BF82
:100B300020F0010040EA03007047490040EB00004C
:100B4000013A28BFB0F5000FEDD2B0FA80FCACF14D
:100B5000080CB2EB0C0200FA0CF0AABF00EBC2507A
:100B600052421843BCBFD0401843704792F0000F68
:100B700081F4000106BF80F400000132013BB5E7BB
:100B80004FEA41037FEA226C18BF7FEA236C21D031
:100B900092EA030F04D092F0000F08BF0846704796
:100BA00090EA010F1CBF0020704712F07F4F04D164
:100BB000400028BF40F00040704712F100723CBF77
:100BC00000F50000704700F0004343F0FE4040F4A1
:100BD000000070477FEA226216BF08467FEA23635F
:100BE0000146420206BF5FEA412390EA010F40F44A
:100BF000800070474FF0000304E000BF10F0004396
:100C000048BF40425FEA000C08BF704743F096437C
:100C100001464FF000001CE050EA010208BF704797
:100C20004FF000030AE000BF50EA010208BF70471E
:100C300011F0004302D5404261EB41015FEA010C33
:100C400002BF84460146002043F0B64308BFA3F12B
:100C50008053A3F50003BCFA8CF2083AA3EBC2530D
:100C600010DB01FA02FC634400FA02FCC2F120022C
:100C7000BCF1004F20FA02F243EB020008BF20F063
:100C80000100704702F1200201FA02FCC2F12002C9
:100C900050EA4C0021FA02F243EB020008BF20EABE
:100CA000DC7070474FF0FF0C1CEAD0521EBF1CEAEC
:100CB000D15392EA0C0F93EA0C0F6FD01A4480EADA
:100CC000010C400218BF5FEA41211ED04FF00063C3
:100CD00043EA501043EA5111A0FB01310CF00040EF
:100CE000B1F5000F3EBF490041EAD3715B0040EA15
:100CF000010062F17F02FD2A1DD8B3F1004F40EBE5
:100D0000C25008BF20F00100704790F0000F0CF0B7
:100D1000004C08BF49024CEA502040EA51207F3A7B
:100D2000C2BFD2F1FF0340EAC250704740F4000056
:100D30004FF00003013A5DDC12F1190FDCBF00F047
:100D400000407047C2F10002410021FA02F1C2F1F5
:100D5000200200FA02FC5FEA310040F1000053EA91
:100D60004C0308BF20EADC70704792F0000F00F0DF
:100D7000004C02BF400010F4000F013AF9D040EAE5
:100D80000C0093F0000F01F0004C02BF490011F479
:100D9000000F013BF9D041EA0C018FE70CEAD15377
:100DA00092EA0C0F18BF93EA0C0F0AD030F0004CF7
:100DB00018BF31F0004CD8D180EA010000F00040AB
:100DC000704790F0000F17BF90F0004F084691F069
:100DD000000F91F0004F14D092EA0C0F01D14202A3
:100DE0000FD193EA0C0F03D14B0218BF084608D16C
:100DF00080EA010000F0004040F0FE4040F40000B6
:100E0000704740F0FE4040F4400070474FF0FF0C48
:100E10001CEAD0521EBF1CEAD15392EA0C0F93EA8F
:100E20000C0F69D0A2EB030280EA010C49024FEAE1
:100E3000402037D04FF0805343EA111143EA10139A
:100E40000CF000408B4238BF5B0042F17D024FF452
:100E5000000C8B4224BF5B1A40EA0C00B3EB510F2D
:100E600024BFA3EB510340EA5C00B3EB910F24BF16
:100E7000A3EB910340EA9C00B3EBD10F24BFA3EB9B
:100E8000D10340EADC001B0118BF5FEA1C1CE0D163
:100E9000FD2A3FF650AF8B4240EBC25008BF20F016
:100EA000010070470CF0004C4CEA50207F32C2BF6A
:100EB000D2F1FF0340EAC250704740F400004FF007
:100EC0000003013A37E792F0000F00F0004C02BF38
:100ED000400010F4000F013AF9D040EA0C0093F002
:100EE000000F01F0004C02BF490011F4000F013B5C
:100EF000F9D041EA0C0195E70CEAD15392EA0C0FC4
:100F000008D142027FF47DAF93EA0C0F7FF470AFFB
:100F1000084676E793EA0C0F04D14B023FF44CAF3E
:100F200008466EE730F0004C18BF31F0004CCAD1D3
:100F300030F000427FF45CAF31F000437FF43CAF0F
:100F40005FE700BF4FEA4002B2F1FE4F0FD34FF010
:100F50009E03B3EB12620DD94FEA002343F0004326
:100F600010F0004F23FA02F018BF404270474FF0D4
:100F70000000704712F1610F01D1420205D110F05B
:100F8000004008BF6FF0004070474FF0000070470E
:100F900038B50022002304460D46FFF70FFD28B99F
:100FA00020462946BDE8384000F00AB8204605F141
:100FB000004100F005F8404261EB410138BD00BF3F
:100FC000D0B500220B4B06460F46FFF785FA00F01E
:100FD00015F80446FFF706FA0022074BFFF77CFAE4
:100FE00002460B4630463946FFF7BEF800F006F8D9
:100FF0002146D0BD0000F03D0000F0414A0011D272
:1010000012F5001211D20DD56FF47873B3EB625262
:101010000ED44FEAC12343F0004343EA505323FA6E
:1010200002F070474FF00000704750EA013002D1E3
:101030004FF0FF3070474FF000007047002301224F
:1010400030B5012091B04FF480310224CDE90B334B
:10105000CDE90233CDE90433089301930A92099351
:101060004FF480324FF40023CDE9060106A8CDE904
:101070000E230D9403F0E6FE08B172B6FEE70346B8
:101080000F254FF48062214601A802940393059333
:101090000195049204F0C4F808B172B6FEE711B0ED
:1010A00030BD00BF000000002DE9F04F0026F5B074
:1010B00003F0ECFB03F056FE03F01CFCFFF7BEFF51
:1010C000CDE94266CDE944669A4B9B4F9A69DFF8B9
:1010D0006C8242F020029A619A6940F2011102F09A
:1010E00020020F920F9A9A69384642F004029A61E0
:1010F0009A69012502F004021092109A9A69032459
:1011000042F008029A619B69324603F0080311938A
:10111000119B03F023FE01221021384603F01EFE2E
:1011200001224FF48051404603F018FE022240F2A3
:101130000113384642A94592CDE94235449603F061
:10114000F1FC1023384642A945944293CDE943551A
:1011500003F0E8FC40F60743404642A94293CDE93C
:10116000436503F0DFFC4FF48053404642A9CDE9CC
:1011700042354594449503F0D5FC08234FF4827B17
:101180004FF4007A4FF00A096D4CE3616D4B204635
:10119000C4E901B6C4E90366C4E9056AC4E908669E
:1011A000C4E90A69236004F089F908B172B6FEE760
:1011B000654E664BC6E90200C6E90400C6E90700B1
:1011C000C6E909003046C6F804B0C6F818A0C6F84B
:1011D0002C90336004F072F908B172B6FEE740F269
:1011E0003F139F22DFF86891CDE94200C9F80C3027
:1011F000584BCDE94400CDE93200C9F80800C9F8E0
:101200001000C9F818004846C9F80420C9F8003091
:1012100004F000FD08B172B6FEE74FF48053484673
:1012200042A9429304F088FD08B172B6FEE7CDE909
:10123000320032A9484604F0DDFE824608B172B69B
:10124000FEE7484604F04EFD0C234FF4E132DFF890
:101250000891C9F81430414B4846C9E902AAC9E9C6
:1012600006AAC9F810A0C9F80420C9F8003004F093
:10127000F7FE08B172B6FEE72A463949484605F03E
:1012800001F82A462946384603F068FD354A364BB0
:1012900032A90DF1540A11600FCB8AE80F00142017
:1012A00005F050FA314B1861002800F0F880304BFF
:1012B0001A78002A00F0E780012A40F0F2804FF40B
:1012C00080534FF480720DF1A80B5C46294D0660E7
:1012D000C7600381C0F8048002820FCD0FC495E877
:1012E00003004FF0FF3384E80300172248465946B5
:1012F00004F024FF00241D4D1F4A2B69DFF87C8079
:10130000198AD8681360224603F028FD012003F0F3
:1013100015FB2B690122198AD86803F01FFD50467E
:101320000123414632AA009402F056FE012827D13B
:1013300072B6FEE70010024000080140000C0140B8
:10134000E8020020003001409002002000380040F8
:101350004802002000080040000200200038014040
:10136000FC01002040040020E0930008500400200D
:101370004804002088940008440400200000002055
:101380004FF0FF3E4FF000094FF0000A7A4B19AFC3
:1013900093E8070003F10C0C03F1200612AB83E87D
:1013A0000700BCE80F000FC7DCF8003024AD3B603D
:1013B0000FCE0FC596E80300CDE91F440394219496
:1013C0001E9485E803004046CDE9709A2294ADF85A
:1013D0008C40ADF8C841C8F804E002F053F9674BFF
:1013E0001B78002B41D0012BF9D1002000F084FEA6
:1013F000002001F065F9002001F07CFF002144206D
:1014000000F01AFD5E4A1042F8D010F4804130D04E
:101410004FF480420021442001F020F900230021F4
:101420004C20CDE91E33CDE920332293ADF88C302A
:1014300000F002FDC0F3090116291FD94FF0000387
:101440000A2212A91EA88DF87A3005F0C4FF0646BC
:1014500050B340F6B8334B49CA899A4284BF01233E
:10146000CB810123474A9381B9E742A800F0D2F922
:10147000B5E74420444A01F0F1F8EAE700221EA84B
:1014800001F0DEFEDAE74FF010030DF1A80B046067
:1014900005825C463D4D0381C76047601DE772B61B
:1014A000FEE70DF1A80B25E703F07EF98846054617
:1014B000374C041941F10007200A40EA076000F0A8
:1014C00035FE2A4643460DF16E0003F0B5F944F2AD
:1014D0001A0124F4FF7222F00102521807F0FF03F0
:1014E00043F100030DF1720003F0A6F94FF4FA7016
:1014F00000F0FEFEDC2001F0E3F8052000F0FCFD2A
:10150000039B324619A914208DF8663001F022FBA6
:1015100031460122142001F09BFA032002F0C6FE9E
:101520000446002895D1164E0021442000F084FC8A
:101530003042F9D0039A10F4804102F10102039283
:1015400004D14420104A01F089F882E74FF4814227
:101550000021442001F082F800214C2000F06CFCB6
:10156000C0F30906162E40F2E980DFF82890DFF874
:1015700028801EAF20E000BFF09300084804002040
:1015800000D02724680400200090272470940008CD
:1015900068816D03A094000800020020494617F8F6
:1015A000012B584605F0B4FE4FF0FF330222594696
:1015B0004046013404F0C2FDA642EFDC8E4B02220D
:1015C0001B685946ABF800301B0C8DF8AA308B48CD
:1015D0004FF0FF3304F0B2FD00230A2224A91EA815
:1015E0008DF87A3005F0F7FE044600287FF431AF1D
:1015F00003F064F8824603F0D7F80CA906460DF113
:10160000820003F007F90DA90DF1860003F002F93D
:101610000EA90DF18A0003F0FDF8DDE90C07381A78
:10162000FEF7E0FE8046A6EB0A008946FEF7DAFEEA
:1016300002460E981646C01B0F46FEF7D3FE024622
:101640000B46AAEB0500CDE90423FEF7CBFE32469C
:101650003B46CDE9060140464946FEF73DFFDDE940
:101660000623CDE90A01DDE90401FEF735FF024654
:101670000B46DDE90A01FEF777FD3246CDE90A01A6
:101680003B46DDE90A6740464946FEF76FFDDDE966
:101690000423FEF76BFDDDE90623FEF767FD024636
:1016A0000B4630463946FFF741F8FFF771FCFEF76D
:1016B000E5FE4DA3D3E90023FEF70EFF4CA3D3E9CB
:1016C0000023FEF709FF06460F469DF8C951CDE9F4
:1016D0004467092D38D9DDE9708942464B46FEF74B
:1016E00043FD21F00043099308900022DDE9080141
:1016F000434BFFF763F900284CD19DF8C831CDE981
:1017000044890133DBB2142B94BF8DF8C831ADF896
:10171000C8013C4CDDE944233B495846C4E9022357
:1017200005F0F6FD02464FF0FF3392B259463348BA
:1017300004F004FD0123354AD38192E600223146AC
:101740001EA801F07DFD10E774AA6B1C02EBC50515
:1017500045E92E6700260027DDB20DF588788DF863
:10176000C9513046F8E902233946FEF7FFFC01343F
:10177000AC4206460F46F4DB2846CDE96E67FEF71D
:1017800031FE02460B4630463946FEF7CFFFCDE923
:101790004401BEE76A1ED20048A95AA88DF8C84184
:1017A00005F029FE00220023CDE96C6744ADD5E9A0
:1017B00016891046194642464B46FEF7D7FC0134BF
:1017C0000A2C02460B46E5E90289F0D1CDE96E23E9
:1017D00000220F4BCDE97067FEF7A8FFCDE9440169
:1017E00097E700BFAFF30080FA48CE3B1835B13D14
:1017F0000000001319DDB141C89400080002002068
:101800000000344050040020A89400086804002020
:1018100000002440F0B59DB06B460024404A0646C7
:1018200002F10C0702F1200E07CA03C303AD1A80B0
:101830000FCF0FC53B680DF1200C2B60BEE80F00E9
:10184000ACE80F009EE803004CF8040B22460A2087
:10185000CDE91044CDE90E44ACF80010694612946D
:10186000ADF84C408DF8024001F074F90C200122D3
:10187000214601F0EDF8022002F018FDF0B9294CE4
:101880000021442000F0D8FA2042F9D010F4804121
:1018900016D04FF481420021442000F0DFFE0021E9
:1018A0004C2000F0C9FAC0F30901162932D90024EE
:1018B0008DF83A40039B0E9A9A4207D01DB0F0BDB6
:1018C0004420194A00F0CAFE1DB0F0BD0F9A049BD7
:1018D0009A42F3D1BDF84020BDF814309A42EDD1C0
:1018E00031460EA801F07CFA06460F462246162124
:1018F00008A802F099FD32463B460C4914A805F0B1
:1019000007FD02464FF0FF3314A992B2084804F0D5
:1019100015FCD3E700220EA801F092FCC7E700BF38
:101920002894000800D0272480902724B894000829
:10193000000200200E4B82B09A690E4942F001026B
:101940009A619A6902F001020092009ADA6942F003
:101950008052DA61DB6903F080530193019B4B688D
:1019600023F0E06343F000734B6002B0704700BFA8
:101970000010024000000140D0B500242F4A036847
:1019800088B09342CDE90444CDE9064404D02C4A02
:10199000934229D008B0D0BD2A4BA0269A690227CD
:1019A00042F480529A619A6904A902F4805200922A
:1019B000009A9A69244842F004029A619B69CDE931
:1019C000046703F0040301930323019A079303F0D0
:1019D000A9F8402200231C4804A9CDE90423069459
:1019E00003F0A0F808B0D0BD164B4FF42046DA69DA
:1019F000022742F48042DA61DA6904A902F48042E3
:101A00000292029A9A69114842F008029A619B690F
:101A1000CDE9046703F0080303930323039A0793B4
:101A200003F080F84FF480420023084804A9CDE970
:101A30000423069403F076F808B0D0BD00300140CE
:101A4000003800400010024000080140000C014036
:101A50000E4B02689A4200D07047002203F5023311
:101A6000D96900B541F00401D961DB6983B003F0A5
:101A7000040301931E201146019B02F083FF1E20E8
:101A800003B05DF804EB02F0B9BF00BF00080040EE
:101A9000D0B500241E4B026886B09A42CDE90244BC
:101AA000CDE9044401D006B0D0BD03F558439A698E
:101AB0004FF4007642F480429A619A69022702F458
:101AC00080420092009A9A6902A942F004029A6147
:101AD0009B69104803F0040301930323019A0593C3
:101AE000CDE9026703F01EF800234FF4806202A9DB
:101AF0000848CDE90223049403F014F82246214655
:101B0000252002F03FFF252002F078FF06B0D0BD6F
:101B10000038014000080140FEE700BFFEE700BFBB
:101B2000FEE700BFFEE700BFFEE700BF704700BF53
:101B3000704700BF704700BF02F0EEBE014804F0DE
:101B4000AFB900BF48020020014804F033BC00BF19
:101B5000000200200120704708B505F0C9FC1622DC
:101B600003464FF0FF301A6008BD00BF08B505F00E
:101B7000BFFC16230360FEE770B5161E07DD0C469A
:101B80008D19AFF3008004F8010BA542F9D130465E
:101B900070BD00BF70B5161E07DD0C468D1914F818
:101BA000010BAFF30080AC42F9D1304670BD00BFED
:101BB0004FF0FF30704700BF4FF4005300204B60E0
:101BC000704700BF01207047002070470D49034651
:101BD00010B50D4A0D4C0868121B20B10344934206
:101BE00007D80B6010BD0A4C2046034493420C609A
:101BF000F7D905F07DFC0C2203464FF0FF301A6048
:101C000010BD00BF80040020005000200004000030
:101C1000D8050020704700BF2DE9F0431446014469
:101C2000B4F5445F83B0C1F304426ED201F07F018A
:101C30004FEA810C1D464CEA42239C465BBAADF844
:101C400004304FEA1C2C3CB3064661B34FF0020847
:101C5000C1464CF0400C8DF804C02F4F00223B6869
:101C60001989586803F07AF83B684A46186801A950
:101C70004FF6FF7303F080FC00283DD03B68274FF0
:101C800019895868012203F069F83B681B7D022B13
:101C90000DD003B0BDE8F08340F26F21204B214A04
:101CA000214804F031FD4FF00108C146D5E7182E58
:101CB000EFD01E4A9DF80430B8F1020FD65C03D174
:101CC0009DF805307340D65C2C4415F8013B7340F9
:101CD000A542D65CF9D10DF10303012200211820A1
:101CE000FFF79AFF9DF803309E42D2D03B685B6AB3
:101CF000002BCED09847CCE73B682246294618688F
:101D00004FF6FF7303F07AFEB8E740F25D21084B0F
:101D1000044A054804F0F8FC440400204004002074
:101D20001095000848950008F4940008400300202E
:101D3000E4940008F0B500F07F018B000446C0F386
:101D4000044043EA4022134685B052BAADF8082059
:101D5000002932D0022637461B0A43F040038DF893
:101D60000830324D00222B681989586802F0F6FFBE
:101D70002B683A46186802A94FF6FF7303F0FCFB84
:101D800000284AD02B682A4D19895868012202F090
:101D9000E5FF2B681B7D022B12D09DF80F109DF8DC
:101DA0000E209DF80D309DF80C0002EB012203EB94
:101DB000022300EB032005B0F0BD01263746D0E733
:101DC000182CEAD01B489DF80830022EC35C03D1C2
:101DD0009DF809205340C35C9DF80C109DF80D2020
:101DE0004B40C35C9DF80F405340C35C9DF80E20F0
:101DF00000215340C35C01225C40045D0DF10703E8
:101E00001820FFF709FF9DF807309C42C5D02B68CA
:101E10005B6A002BC1D09847BFE72A684FF6FF7373
:101E2000106803A9042203F0E9FDABE74404002095
:101E30004004002040030020F0B50144044601F0B6
:101E40007F008300C1F3044143EA4122134685B079
:101E500052BAADF80820002832D0022637461B0AB5
:101E600043F040038DF80830324D00222B68198969
:101E7000586802F073FF2B683A46186802A94FF6BB
:101E8000FF7303F079FB00284AD02B682A4D19898B
:101E90005868012202F062FF2B681B7D022B12D0D2
:101EA0009DF80F109DF80E209DF80D309DF80C0048
:101EB00002EB012203EB022300EB032005B0F0BD8F
:101EC00001263746D0E7182CEAD01C489DF8083088
:101ED000022EC35C03D19DF809205340C35C9DF8DA
:101EE0000C109DF80D204B40C35C9DF80F405340F3
:101EF000C35C9DF80E2000215340C35C01225C406E
:101F0000045D0DF107031820FFF786FE9DF80730EA
:101F10009C42C5D02B685B6A002BC1D09847BFE7B5
:101F20002A684FF6FF73106803A9042203F066FDC8
:101F3000ABE700BF44040020400400204003002021
:101F400000B5174B02221B6883B0DB7B012B13D03B
:101F5000032B1BD14FF4F0100C2101ABFFF75CFEFB
:101F6000BDF80400C0F30C00C30448BF40F4604057
:101F700000B203B05DF804FB0A48002101ABFFF793
:101F80004BFEBDF80400C0F30C00EDE7064800214D
:101F900001ABFFF741FEBDF80400C0F30C00E3E71E
:101FA000400400200C00180020000C002DE9F04136
:101FB00000270E4604469AB03946154602A860220C
:101FC00001970DF1040837461E4605F02EFA24B19C
:101FD00039462246404605F0C6FA3DB12A4608EB8E
:101FE0000400314605F0BFFA2544ACB20C4D002286
:101FF0002B681989586802F0B1FE286822464146CC
:102000004FF6FF73006803F0B7FA04462B6801220D
:102010005868198902F0A2FE20461AB0BDE8F08186
:102020004404002010B501EB000CB2F5445F82B00F
:10203000CCF304412AD20CF07F044FEA840C4CEA22
:102040004121090A41F080018DF805C08DF8041086
:102050003AB164B9114901200968097D89B102B01A
:1020600010BD410061F07E018DF80410F2E741F0EF
:1020700040018DF80410094902200968097D0029F2
:10208000EDD101A9FFF792FF02B010BD40F25D2132
:10209000034B044A044804F037FB00BF400400200F
:1020A000E494000848950008F494000810B5114B1A
:1020B00084B01B68CDE902121C7D00F07F039B00F9
:1020C000C0F3044043EA40231A0A42F0C00243F03E
:1020D00003038DF805308DF804200CB104B010BD59
:1020E000082201A90DEB02030220FFF75FFF04B0F5
:1020F00010BD00BF4004002041F2CC0200B50A4BE5
:1021000083B01B68ADF800001B7DADF8042013B14F
:1021100003B05DF804FB02226B46104601A9FFF7ED
:1021200045FF03B05DF804FB400400204BF2C00201
:1021300000B50A4B83B01B6801901B7DADF80020F1
:1021400013B103B05DF804FB042269460DEB0203F2
:102150000220FFF72BFF03B05DF804FB40040020D2
:10216000F0B5012242F2D607494D85B02B68ADF893
:102170000820ADF80C701B7D002B61D002AE44F23C
:102180005601444CADF8081023680022198958689C
:1021900002F0E4FD22684FF6FF7310683146022218
:1021A00003F0EAF9002842D023680122198958680F
:1021B00002F0D4FD2B681B7D022B0FD09DF80F1071
:1021C0009DF80E209DF80D309DF80C0002EB0122C9
:1021D00003EB022300EB032005B0F0BD2E499DF870
:1021E00008309DF80900CB5C9DF80C204340CB5C87
:1021F0009DF80D005340CB5C9DF80E204340CB5C16
:102200005340C85C9DF80F30012258400C5C0DF122
:10221000070300211820FFF7FFFC9DF807309C42C0
:10222000CCD02B685B6A002BC8D09847C6E72168E2
:102230004FF6FF730422086803A903F0DFFBB3E73E
:10224000022202AE04463346104603A9FFF7AEFE53
:1022500041F2D6022B681B7DADF80840ADF80C208A
:10226000002B8CD102223346104603A9FFF79EFEB5
:1022700002222B681B7DADF80C70ADF80820002BF6
:102280007FF47DAF3346104603A9FFF78FFE76E754
:102290004004002044040020400300204DF2C0020E
:1022A00010B5114C82B0236801901B7DADF8002061
:1022B0000BB102B010BD0422694601AB0220FFF74A
:1022C00075FE44F2C022236808491B7D0191ADF8D8
:1022D0000020002BEDD10422694601AB0220FFF75C
:1022E00065FE02B010BD00BF40040020FFFF0002E9
:1022F00042F2420170B53C4D84B02B68ADF8081035
:10230000198900220446586802F028FD2A684FF611
:10231000FF73106802A9022203F02EF9002850D0A2
:102320002B68324D19895868012202F017FD2B687D
:10233000197D02291BD09DF80F209DF80E30C4F3A3
:10234000130403EB02239DF80D2002EB03229DF8FA
:102350000C3003EB022342F2C2021B0D1B051C438F
:102360000394ADF80820002934D004B070BD204B90
:102370009DF808209DF809109A5C18204A40995C45
:102380009DF80C204A409A5C9DF80D104A409A5CDA
:102390009DF80E104A40995C9DF80F204A409E5CC3
:1023A00000210DF107030122FFF736FC9DF80730ED
:1023B0009E4203D02A68536AA3B198472B68197DBF
:1023C000B9E72A684FF6FF73106803A9042203F0E7
:1023D00015FBA5E7042202A903AB0220FFF7E6FDE7
:1023E00004B070BD117DA6E7440400204004002025
:1023F0004003002000220221F0B57A4D85B02B6801
:10240000ADF80820C27382824281C0E90A22C0E985
:102410000C22C0E90E22018204461989586802F094
:102420009DFC2A684FF6FF73106802A9012203F091
:10243000A3F8002800F09B802B686B4D1989586821
:10244000012202F08BFC2B681B7D022B68D09DF8CB
:102450000F209DF80E3003EB02239DF80D2002EBB8
:1024600003229DF80C3003EB0223604A23F0100393
:10247000934203D04FF0FF3005B0F0BD0420FFF7CA
:102480006FFE06460520FFF76BFE07460A20FFF7A2
:1024900067FEC0F30440207216B10FB1002876D158
:1024A0002020FFF75DFE0346514A06209B1AB3FA2F
:1024B00083F35B096372FFF753FE03460720236033
:1024C000FFF74EFE034608206360FFF749FE034610
:1024D0000920A372FFF744FE10F0FF0008BF85201B
:1024E000A37AE072CBB11F20FFF73AFE03461E200D
:1024F0006373FFF735FE10F07F0008BF2E2045F212
:10250000D2022B68ADF80C20A0738DF808001B7D5B
:10251000002B35D0002005B0F0BD7423A372E2E794
:10252000344B9DF808209DF80C109A5C18204A4006
:102530009A5C9DF80D104A409A5C9DF80E104A4036
:10254000995C9DF80F204A409E5C00210DF1070325
:102550000122FFF761FB9DF807309E423FF477AF01
:102560002B685B6A002B3FF472AF98476FE72A68CD
:102570004FF6FF73106803A9042203F03FFA5BE7EC
:10258000012202AB03A90220FFF710FDC2E742F2CD
:10259000D622194BADF8082003932B681E7D002E20
:1025A0007FF47EAF042203AB02A90220FFF7FEFCFA
:1025B00047F6E2624FF6E0712B681B7DADF808200C
:1025C000227A8DF80F60ADF80C108DF80E20002BDC
:1025D0007FF466AF042203AB02A90220FFF7E6FCFA
:1025E0005EE700BF44040020400400200203CADE6E
:1025F0004002001040030020FFFF800100B500F002
:102600007F0283B00191C0F30443910041EA432368
:102610001B0A43F080038DF800308DF801105AB189
:1026200043F040038DF800300B4B02201B681B7DEC
:1026300043B103B05DF804FB074B01201B681B7D11
:10264000002BF6D1042269460DEB0203FFF7AEFC26
:1026500003B05DF804FB00BF4004002000B5014456
:1026600001F07F004FEA800CC1F304434CEA43239E
:102670001B0A83B043F0800301928DF800308DF87F
:1026800001C058B143F040038DF800300B4B0220DD
:102690001B681B7D43B103B05DF804FB074B0120B1
:1026A0001B681B7D002BF6D1042269460DEB02034B
:1026B000FFF77CFC03B05DF804FB00BF4004002082
:1026C00010B51B4C82B023681B7D38B14DF2C0029F
:1026D0000190ADF800209BB102B010BD4FF6FF5144
:1026E00044F2C0220191ADF80020002BF4D1042265
:1026F00069460DEB02030220FFF758FC02B010BD43
:102700000422694601AB0220FFF750FC44F2C022CC
:10271000236808491B7D0191ADF80020002BDBD117
:102720000422694601AB0220FFF740FC02B010BD55
:1027300040040020FFFF000243F2C8022DE9F047E9
:102740009F4EA04984B033680391ADF808201B7DEB
:1027500003AF0DF10808002B00F01781032448F2A5
:102760004809994DF02200BF013AFCD12B68ADF821
:102770000C901989586802F0F1FA28684FF6FF7337
:1027800002223946006802F0F7FE002800F094802B
:102790002B6801221989586802F0E0FA33681B7D22
:1027A000022B65D09DF80730012B00F08380013C9F
:1027B00014F0FF04D6D14FF0FF3400238DF8083019
:1027C00043F2C803ADF80C3033681B7D002B00F0DA
:1027D000B18045F24803ADF808302B680022198912
:1027E000586802F0BBFA2B684146186802224FF67F
:1027F000FF7302F0C1FE002800F093802B680122D5
:102800001989586802F0AAFA33681B7D022B5DD043
:102810006FF060459DF80F209DF80E103B4601EBD0
:1028200002219DF80D20694802EB01229DF80C1051
:1028300001EB0221A94208BF4FF0FF34042200211E
:10284000FFF7EAF99DF80F109DF80E309DF80D2066
:1028500003EB012302EB03229DF80C3003EB022370
:10286000AB4214BF20464FF0FF3004B0BDE8F08704
:10287000574A9DF80C309DF80D10D35C18204B4042
:10288000D35C9DF807104B4012F803A0002143468B
:102890000122FFF7C1F99DF808309A4582D03368CC
:1028A0005B6A002B3FF47EAF98479DF80730012B01
:1028B0007FF47DAF002480E72B68012218680DF1BA
:1028C00007014FF6FF7303F099F861E7404B9DF85D
:1028D00008209DF809109A5C18204A409A5C9DF8DF
:1028E0000C104A409A5C9DF80D104A40995C9DF886
:1028F0000E204A409A5C9DF80F104A409D5C0021D2
:102900000DF107030122FFF787F99DF807309D427B
:102910003FF47EAF33685B6A002B3FF479AF984792
:1029200076E72B680422394618684FF6FF7303F0E8
:1029300065F863E74346012239460220FFF736FB7C
:10294000012248F2C80133681B7DADF80C108DF8E8
:102950000820002B7FF43DAF434639460220FFF7A5
:1029600025FB40F2FF1143F6C81233681B7DADF81A
:102970000810ADF80C20002B7FF42BAF0222434649
:1029800039461046FFF712FB23E73B460422414637
:102990000220FFF70BFB41F2FF0143F2C81233683C
:1029A0001B7DADF80810ADF80C20002B7FF4D6AEDF
:1029B0000222434639461046FFF7F8FACEE600BF3A
:1029C0004004002001000200440400201C00040018
:1029D00040030020012801D0FFF7AEBE30B583B020
:1029E0000222002101AB1748FFF716F942F2CF226D
:1029F000154C16492368BDF8045001911B7DADF8B4
:102A00000020C3B1FFF798FE002142F2CF222368D5
:102A1000ADF80450ADF806101B7D0446ADF800205B
:102A200013B1204603B030BD0422694601AB022039
:102A3000FFF7BCFAF5E70422694601AB0220FFF775
:102A4000B5FADFE74800070040040020FFFF05015A
:102A500070B53C4C7F29236884B01B7D40EAC220BE
:102A600013D8002449F2C03240EA01403649ADF89B
:102A70000C00000C02918DF80E008DF80F40ADF89F
:102A80000420002B44D004B070BD49F2C0322E4D5A
:102A9000803140EA0140CDE90250ADF8042002AE99
:102AA000002B3ED01021294DADF808102B680022D4
:102AB0001989586802F052F92A684FF6FF731068B6
:102AC0003146012202F058FD002831D02B68012246
:102AD0001989586802F042F923681B7D022BD2D174
:102AE0001B489DF808209DF80330815C0122594065
:102AF000455C01AB00211820FFF78EF89DF80430EB
:102B00009D42C0D023685B6A002BBCD09847BAE7CF
:102B1000082201A90DEB02030220FFF747FA04B0D7
:102B200070BD3346082201A90220FFF73FFAB9E73A
:102B300029684FF6FF73012208680DF1030102F0C6
:102B40005DFFC3E74004002000F400FC44040020C3
:102B50004003002002EB000CBCF5806F50DA2DE939
:102B6000F0437F2A064614460D4683B010D914223E
:102B700041F2FE03244F01923968ADF8003091F81C
:102B80001480B8F1000F0ED0002003B0BDE8F08330
:102B90000B46024621464FF4A010FFF743FA0020EF
:102BA00003B0BDE8F083042201AB69460220FFF7C1
:102BB000FDF942F2FE033A6892F81490ADF8044031
:102BC000ADF80680ADF80030B9F1000FDCD1042279
:102BD00001AB69460220FFF7E9F9002E14BFBA22C3
:102BE00081223B681B7D8DF805908DF80420002B19
:102BF000CAD12B46324601A90120FFF7D7F9C3E716
:102C00004FF0FF30704700BF400400202DE9F04F27
:102C1000052885B020D0AF224AF6B57B4AF67D78EC
:102C20004AF63E794AF2FE574AF6364A4AF6FE031B
:102C300002250092ADF80C3000238DF80F304EF2D3
:102C4000C603634CADF8083023688DF80E501E7D26
:102C500096B105B0BDE8F08FCF224CF6F57B4CF66F
:102C600036784CF27E794CF2BE674CF23E4A4CF21A
:102C7000FD0301250092DDE7042203AB022002A937
:102C8000FFF794F94FF2C6032268127DADF80CA04D
:102C90008DF80F608DF80E50ADF808300192002AC3
:102CA000D7D1042203AB022002A9FFF77FF9C72383
:102CB0002268167D019AADF80C708DF80F208DF802
:102CC0000E50ADF80830002EC3D1042203AB022011
:102CD00002A9FFF76BF941F2C7032268177DADF82F
:102CE0000C908DF80F608DF80E50ADF80830002F65
:102CF000AFD1042203AB022002A9FFF757F942F239
:102D0000C703226892F81490ADF80C808DF80F700C
:102D10008DF80E50ADF80830B9F1000F99D10422AA
:102D200003AB02A90220FFF741F9B52243F2C70322
:102D300021680E7D00998DF80F908DF80D108DF89B
:102D40000E508DF80C20ADF80830002E81D10422F1
:102D500003AB022002A9FFF729F944F2C702236856
:102D60001B7DADF80CB08DF80E508DF80F60ADF8EE
:102D70000820002B7FF46DAF042203AB022002A9D0
:102D8000FFF714F9134A23681B7D039247F2C6022A
:102D9000ADF80820002B7FF45CAF042203AB02A93E
:102DA0000220FFF703F948F2C60223680A491B7D97
:102DB0000391ADF80820002B7FF44BAF042203AB46
:102DC00002A90220FFF7F2F805B0BDE8F08F00BFBE
:102DD000400400204002001089A46D1B0000000088
:102DE0002DE9F04F4DF241049B4E91B03368ADF8A0
:102DF0003440002204468A465868198901F0AEFF23
:102E00003368022218680DA94FF6FF7302F0B4FB75
:102E10000EAD002800F003823368904E012219891C
:102E2000586801F09BFF33681A7D022A00F0B681D2
:102E3000D97B9DF83C209DF83B309DF8387043EAE3
:102E400002239DF83A20012942EA03229DF83930F5
:102E500043EA022347EA03274FF005022B4600F01E
:102E6000CD81032940F0CF8104214FF4F010FEF70B
:102E7000D3FE4BF2C00300219DF83B20ADF8343067
:102E80009DF83C309DF839C042EA03229DF83A3063
:102E9000306843EA02239DF838604CEA032CC3F300
:102EA00007426F4B46EA0C26F31842F100021B0A58
:102EB00043EA02631A0A63F3070162F30F211A0C53
:102EC00062F317411B0E63F31F610E91037D002B0C
:102ED00000F09E81FFF734F80546F01BFDF78EFEEB
:102EE000E27BA37A0646C3EB0223A27B607B1344FA
:102EF000227C03EB0243627C03EB0263E27AA3EBE6
:102F00000223227BA3EB0243A3EB0060FDF776FED6
:102F100004462846FDF772FE4FF04A51FDF7C2FE07
:102F200001464FF07E50FDF7B3FD01462046FDF708
:102F3000B9FE01463046FDF7ABFDFDF775FA0022FC
:102F4000484BFDF7C9FA40A3D3E90023FDF7C4FAC3
:102F50003FA3D3E90023FDF7BFFA04460D469AF8D4
:102F6000C160CAE90245092E7ED80AEBC603C3E94F
:102F700004450136F6B20022DAE9040100238AF89A
:102F8000C160FDF7F3F8012E04460D4645D0DAE99D
:102F90000623FDF7EBF8022E04460D463DD0DAE994
:102FA0000823FDF7E3F8032E04460D4635D0DAE991
:102FB0000A23FDF7DBF8042E04460D462DD0DAE98E
:102FC0000C23FDF7D3F8052E04460D4625D0DAE98B
:102FD0000E23FDF7CBF8062E04460D461DD0DAE988
:102FE0001023FDF7C3F8072E04460D4615D0DAE985
:102FF0001223FDF7BBF8082E04460D460DD0DAE982
:103000001423FDF7B3F80A2E04460D4605D1DAE97C
:103010001623FDF7ABF804460D463046CAE92C45A9
:10302000FDF7E0F902460B4620462946FDF77EFBF8
:103030008046894640464946CAE9028911B0BDE842
:10304000F08F00BFAFF30080FA48CE3B1835B13D9A
:103050000000001319DDB1414404002040040020A9
:103060001881AA020000E03FDAE92E8942464B4669
:10307000FDF77AF800226E4B21F00041FDF79EFC2F
:10308000002879D00023721E0AF118018AF8C03096
:10309000D2000AF1600004F0AEF9DAE91A89DAE93F
:1030A0001C67DAE91E23DAE924BCDAE91801CAE967
:1030B0000689CDE90A23CAE90A23DAE92023CDE902
:1030C00004BCCDE90823CAE90C23DAE92223CAE9C2
:1030D00010BCDAE926BCCDE90623CAE90E23CDE906
:1030E00002BCCAE912BCDAE928BC0022CAE914BC55
:1030F0000023CAE92A45CAE90401CAE90867CDE9FB
:1031000000BCFDF733F842464B46FDF72FF8324638
:103110003B46FDF72BF8DDE90A23FDF727F8DDE94B
:103120000823FDF723F8DDE90623FDF71FF8DDE9A5
:103130000423FDF71BF8DDE90223FDF717F8DDE9AD
:103140000023FDF713F822462B46FDF70FF8024641
:103150000B46CAE91645CAE92C23CAE92E450022C6
:10316000344BFDF7E3FA8046894640464946CAE9B2
:10317000028911B0BDE8F08F9AF8C030494601339A
:10318000DBB2142B88BFAAF8C0004046CAE9028906
:1031900098BF8AF8C03011B0BDE8F08F264B9DF87B
:1031A00034209DF835109A5C18204A409A5C9DF8AE
:1031B00038104A409A5C9DF839104A409A5C9DF854
:1031C0003A104A409A5C9DF83B104A40995C9DF841
:1031D0003C204A409F5C00210DF133030122FEF7A1
:1031E0001BFD9DF833309F4233683FF421AE5A6A8D
:1031F000002A3FF41DAE9047336819E600210F48BE
:10320000FEF70AFD35E600216420FEF705FD30E6F5
:103210002B4604220DA90220FEF7C8FE5AE63368A9
:103220000522294618684FF6FF7302F0E7FBF3E525
:103230000000344000002440400300200400180037
:103240002DE9F041DFF8A88002EB010CD8F800501E
:1032500082B0EB7B032B15BF122313234FF4901E78
:103260004FF4981EBCF5806F0DDA7F2A0F46144686
:1032700006460BD803460A467046214602B0BDE812
:10328000F041FEF7C9BC02B0BDE8F08141F2FE0298
:103290008DF8043000232D7DADF800208DF8053029
:1032A000ADF806304DB133463A4600214FF4E810F0
:1032B00002B0BDE8F041FEF7AFBC042201AB6946A5
:1032C0000220FEF773FE42F2FE02D8F800301B7DAA
:1032D000ADF80440ADF80650ADF80020002BE2D167
:1032E0000422694601AB0220FEF760FEDBE700BF67
:1032F0004004002030B583B078B120F00203013BD8
:1033000004460F2B35D8DFE803F013343437343458
:10331000343A343434343434343D40F68502214B6D
:10332000ADF804201B681B7DABB3002003B030BD9B
:1033300041F289021B4BADF804201B6801AD1B7DD7
:103340001BB32B46012203214420FEF765FC9DF8A8
:1033500004301B07E9D500231A4619461846FEF724
:1033600061FE14F0020304D11A4619460220FEF74A
:1033700059FE4FF0FF30D9E742F69502DAE742F204
:103380009102D7E741F68D02D4E71A46294601207B
:10339000FEF70CFED5E71A4601A90120FEF706FE4E
:1033A000C3E700BF400400202DE9F04F41F2E202E4
:1033B00041F62204AC4D85B02B68ADF80440ADF861
:1033C00008201B7D04460F4601AE0DF10809002BB5
:1033D00000F0AB80052F00F0A180092F00F0EA80FB
:1033E00047F2D0022B68C4F30B04ADF80440ADF8EB
:1033F00008201B7D002B00F01D8144F250089B4CDF
:103400009B4F04E09DF8023013F0010353D0236872
:10341000ADF8048019895868002201F09FFC2068EB
:103420004FF6FF7302223146006802F0A5F800282B
:1034300057D0236801221989586801F08FFC2B6846
:1034400093F814A0BAF1020FDCD146F240019DF8C6
:1034500004209DF80530BA5C20685A4017F802C075
:103460009DF80230ADF80810018983EA0C030022B0
:10347000406817F803B001F071FC20684FF6FF7345
:1034800052464946006802F077F8002833D0236896
:1034900001221989586801F061FC9DF803302A68FF
:1034A0009B45AFD0536A002BACD098479DF80230B3
:1034B00013F00103ABD141F2CE0202932B68ADF8B9
:1034C00004201C7D002C7CD04B4601220021694841
:1034D000FEF7A2FB9DF8080000F03F0005B0BDE834
:1034E000F08F20684FF6FF7301220DF10201006892
:1034F00002F084FA9DE72368012218680DF10301A8
:103500004FF6FF7302F07AFAC1E75B4A03922BB9D8
:103510004B46082231460220FEF748FD4FF0FF31AE
:10352000554A5648FEF7C2FD5AE702223346104676
:103530004946FEF73BFD4FF0FF3842F2CF3A4FF0DD
:1035400008222B681B7DCDF80880ADF804A00392FB
:10355000002B7FF43FAF4B46082231460220FEF796
:1035600025FD4FF060122B681B7DCDE90282ADF87E
:1035700004A0002B7FF42EAF4B46082231460220D8
:10358000FEF714FD40F2CE322B68052F1B7DCDF8DF
:103590000880ADF80420B8D0394A0392002B7FF49C
:1035A0001CAF4B46082231460220FEF7FFFC092FD4
:1035B0007FF416AF4FF0FF31314A3048FEF776FD09
:1035C0000EE74B46042231460220FEF7EFFC2B6843
:1035D0001F7D42F2CF030294ADF80430002F7FF438
:1035E00073AF4B46042231460220FEF7DFFC8E22E9
:1035F0002B681B7D0297ADF80420002B7FF464AF8D
:103600004B46042231460120FEF7D0FC4FF40071F6
:1036100041F2E2022B681B7DADF80410ADF80820E2
:10362000002B7FF451AF0222334649461046FEF785
:10363000BDFC49E70222334649461046FEF7B6FC78
:1036400040F2FF3144F2D0122B681B7DADF804101C
:10365000ADF80820002B7FF4D0AE02223346494655
:103660001046FEF7A3FCC8E64004002044040020F6
:10367000400300201C000700003C0002040007007B
:10368000001C0002F0B50389044685B06BB947F20F
:10369000CE023C4D01782B688DF80810ADF80C2057
:1036A0001B7D002B5AD005B0F0BD45F24201364DCE
:1036B000ADF80C102B6800221989586801F04EFBF8
:1036C0002A6803AE10684FF6FF730222314601F0FC
:1036D00053FF00284CD02B682A4D198958680122C5
:1036E00001F03CFB2B681B7D022B1BD09DF80730A3
:1036F000208913F0010F14BF09210521FFF754FEA3
:103700002B681B7D43F2C2026168ADF8082003916B
:10371000002BC8D13346042202A90220FEF746FC42
:1037200005B0F0BD194A9DF80C309DF80D10D35C22
:1037300018204B40D35C9DF807104B40D75C00210C
:1037400002AB0122FEF768FA9DF80830BB42CDD0EB
:103750002B685B6A002BC9D09847C7E703AE02AB62
:10376000012231460220FEF721FC2B681B7DC9E7B0
:103770002A684FF6FF7310680DF10701012202F06D
:103780003DF9A8E740040020440400204003002045
:1037900030B5424D10F001022B6885B01B7D0FD073
:1037A00004466FF47C614FF4107240F2CA30CDE9E8
:1037B0000212ADF804003BB3A30751D405B030BDED
:1037C0006FF47C6040F2CA31CDE90202ADF804101A
:1037D000002BF3D1082202AB01A90220FEF7E6FB81
:1037E0004FF6FF6145F6E2222B681B7D0291ADF892
:1037F0000420002BE2D1042202AB0DEB02010220D7
:10380000FEF7D4FB05B030BD082202AB01A90220AF
:10381000FEF7CCFB4FF404024FF0FF312B681B7D09
:10382000CDE9021241F2E232ADF80420002BC3D1FF
:10383000082202AB022001A9FEF7B8FB2B68A20701
:103840001B7D20D5164A029245F6E202ADF804200F
:1038500033B90422022002AB0DEB0201FEF7A6FBF6
:103860004FF4887145F6E2022B6802911B7DADF89A
:103870000420002BA2D1042202AB0DEB0201022096
:10388000FEF794FB9AE74FF4887145F6E202029145
:10389000ADF80420002BAED090E700BF400400201C
:1038A00010010F002DE9F04F0379894601788BB0A4
:1038B000182B02460090019100F2CA8190F803A0F3
:1038C000BAF1180F94BF4FF0000A4FF0010AA14B54
:1038D00006AC92F807C057780FCB07C423800124A9
:1038E000013FFFB2062F98BF9B4BDDF8008098BFC9
:1038F00053F82750B9F8103089F80CC023F0E003D2
:10390000A9F8103098F80D30ACF1010603F102036C
:1039100004FA03F4A7B24FEAC707384688BF4FF44A
:103920008075FDF767F98D49FDF7BCF9FDF70AFBD6
:1039300000238DF8173044F2C033B6FA86F6A9F8A2
:103940001200ADF80C3098F80C30760989F8153073
:103950001B0303F4304298F8083036015B0103F092
:103960002003134398F80E200DF1100843EA024398
:103970003343ADF814301B0C8DF81630784E794B6C
:10398000049333681B7D002B00F06E81BAF1000FA9
:1039900040F07481009A137B73B3537B927B0AA926
:1039A00001EB4303012A33F8103C40F2E5821A018F
:1039B000C2F30A0202F58062B2F5006F4FEAD31338
:1039C00000D301339BB203F07F038DF812304FF622
:1039D0008073ADF8103000238DF8133045F2DC23EE
:1039E000ADF80C3033683D441B7D2BB943460422AF
:1039F000022003A9FEF7DAFAFF2D00F32C814FF421
:103A0000A0526FF4C0515848FEF750FB33681F7D39
:103A1000FC238DF80C304FF4E673009DADF81030A8
:103A2000AB788DF80D30002F00F06681009B1B7B7A
:103A300003F00303032B00F0928143F2CC03ADF8B3
:103A40000C3003F12F4303F5BE0303F51E5304931B
:103A500033681B7D002B00F0718243460422002155
:103A60004248FEF7D9F89DF813309DF812200098CF
:103A700002EB03229DF81130C17803EB02239DF87D
:103A80001020C90002EB0322019BC9B2092B45F2A9
:103A9000C203ADF80C30037922F4FF524FEA03233E
:103AA00003F4F85343EA0103417922F01F024FEA7D
:103AB000410101F0060108BF42F001020B4313432C
:103AC000049333681A7D002A00F0DA8100236FF432
:103AD00074418DF814308DF8173049F2C0330491D9
:103AE0000099ADF80C304B7889791B0343EA8123A8
:103AF000190A1B0C8DF815108DF81630002A00F0ED
:103B0000B681009B5B89002B00F0F280D9B21B0AC2
:103B10008DF80D3040F6CC038DF80C10ADF8103058
:103B2000002A00F0B681019B092B00F01D8147F2AD
:103B3000CE03ADF80C300E4B049333681B7D002B85
:103B400000F0E181062441F2410B0A4FDFF828A082
:103B50001DE000BF609400082C9500086666663F73
:103B600040040020CF4FFCFF08000B0014000100B0
:103B70003411071C44040020400300209DF80B3042
:103B8000013C9B0745D414F0FF0400F01D82012086
:103B900000F0D4FE3B68ADF810B0198958680022D7
:103BA00001F0DCF838684FF6FF73022241460068E6
:103BB00001F0E2FC002800F091803B6801221989A5
:103BC000586801F0CBF833681B7D022BD6D19DF8E5
:103BD00010309DF811101AF803309DF80B204B405F
:103BE0001AF80300002150401AF8005003AB0122DC
:103BF0001820FEF711F89DF80C30AB42BED03368A8
:103C00005B6A002BBAD098479DF80B30013C9B07AC
:103C1000B9D5009B1B79093B0F2B00F2418199F824
:103C20000930012B00F054810198FEF7EFFF46F2B6
:103C3000C622C64933680491ADF80C201B7D002BC9
:103C400000F0558101200BB0BDE8F04FFEF7C2BE79
:103C50004FF0010A3BE6B9F810304FF4806243F0B0
:103C60002003A9F81030CCE643460822022003A91D
:103C7000FEF79CF9BAF1000F3FF48CAEB9F81030A2
:103C80004FF4406243F06003A9F810306FF4C05164
:103C9000AF48FEF70BFA40F20631AE48FEF7AEFC35
:103CA00000214FF00E10FEF7A9FCAB49AB48FEF720
:103CB000A5FC7D238DF80C3045F6DC03ADF8103003
:103CC00033681B7D002B7FF4B1AE03AB012241466C
:103CD0000220FEF76BF933681F7D99E639684FF6CD
:103CE000FF73012208680DF10B0101F087FE64E704
:103CF0008121009841810BE7022203AB1046414627
:103D0000FEF754F984223368013C1B7D8DF80C408A
:103D1000ADF81020002B7FF489AE012203AB1046D2
:103D20004146FEF743F96A783368072A1B7D00F0A5
:103D300039814AF2C0428DF80C70ADF81020002B8A
:103D40007FF474AE03AB012241460220FEF72EF948
:103D5000009B1B7B03F00303032B7FF46EAE8049B3
:103D60008048FEF74BFC78E67F498048FEF746FC2A
:103D700040F63C73ADF80C309223ADF81030336848
:103D80001B7D002B00F0078179497A48FEF736FC4D
:103D900033681A7D14238DF80C3044F2CF43ADF80C
:103DA0001030002A7FF4CEAE0122414603AB022040
:103DB000FEF7FCF80E2146F6CE0233681B7D8DF827
:103DC0000C10ADF81020002B7FF4BCAE0122414650
:103DD00003AB0220FEF7EAF8812142F2D2023368F7
:103DE0001B7D8DF80C10ADF81020002B7FF4AAAECF
:103DF000012203AB41460220FEF7D8F8022441F22B
:103E0000C10233681B7DADF810208DF80C40002BEB
:103E10007FF498AE0122414603AB2046FEF7C6F878
:103E20004FF4007141F2E20233681B7DADF80C10D3
:103E3000ADF81020002B7FF485AE2246414603AB3F
:103E40002046FEF7B3F840F2FF1142F2E252336827
:103E50001B7DADF80C10ADF81020002B7FF472AE76
:103E600022462046414603ABFEF7A0F86AE64346E9
:103E70000822022003A9FEF799F833681A7D40E66C
:103E800043460422022003A9FEF790F833681A7D06
:103E90001CE602224146104603ABFEF787F842E6D5
:103EA000FE2146F2C6123368ADF80C10ADF81020B2
:103EB0001B7D002B7FF4C6AE02224146104603ABA9
:103EC000FEF774F801200BB0BDE8F04FFEF782BD9D
:103ED000019A052A53B270D0092B7FF4A8AE4FF493
:103EE00001526FF400511A48FEF7E0F89FE643468E
:103EF000042203A90220FEF759F801200BB0BDE807
:103F0000F04FFEF767BD4346042203A90220FEF7E7
:103F10004DF841F63C71922233681B7DADF80C10D0
:103F2000ADF81020002B7FF40DAE022203AB41460A
:103F30000120FEF73BF833681A7D2BE74346042245
:103F400003A90220FEF732F887E500BFFF81006475
:103F500008000B000C000E000A5A0C0012000E00A4
:103F6000CC355FAF0C0006003400011C1C000700BC
:103F700033A8B508100007004FF4356202FB03F3C5
:103F8000C3F3CA1202F58062B2F5006F4FEA9343A1
:103F9000FFF418AD15E50222414603AB0120FEF700
:103FA00005F8F1E608228DF80C204AF2C042ADF87F
:103FB0001020002B3FF4C6AE38E540226FF40051CC
:103FC0000448FEF773F832E64FF0FF300BB0BDE85F
:103FD000F08F00BF08000B002DE9F04F89B00546B7
:103FE0009DF848008A46039002209346029300F011
:103FF000A5FC00F09DFC41F641098046CDE9005A40
:10400000A24CA34EA34F0BE0BDF81430DB055DD4EA
:1040100000F08EFCA0EB0800B0F5967F00F2E68081
:104020002368ADF8189019895868002200F096FEB0
:1040300020684FF6FF730222006806A901F09CFA7F
:10404000002800F0BC80236801221989586800F01C
:1040500085FE33681D7D022DD6D146F240019DF8C4
:1040600018309DF81900FA5C9DF814304240BA5C93
:1040700020685340FB5C9DF815C0ADF81C10018909
:1040800083EA0C030022406817F803A000F066FEE4
:1040900020684FF6FF732A46006807A901F06CFA02
:1040A000002800F09580236801221989586800F0E3
:1040B00055FE9DF8133032689A45A5D0536A002BFF
:1040C000A2D09847BDF81430DB05A1D55846DDE9EC
:1040D000005AFEF78FF9013000F084804FF0FF3373
:1040E00059462846CAF80430FFF7DCFB002879D18E
:1040F000BAF80830002B7DD0014607AB6648012294
:10410000FDF78AFD9DF81C30BAF8080013F0010F86
:1041100014BF09210521FFF747F9DAF804105F48B9
:10412000FEF76CFA029B002B40F0878044F21A04E1
:1041300041F2C2023368ADF81840ADF81C201B7D77
:10414000002B7DD0039B5648002B66D1FDF7F2FD76
:104150000146090D090541F42F715148FEF74EFA49
:104160004FF49670FEF79AF8052141F2CC023368BD
:10417000ADF81810ADF81C201B7D002B7ED04FF43D
:10418000A020FDF7D7FD034646494FF4A020194073
:1041900041F4922141F01201FEF730FA44F6E202B6
:1041A000414933680791ADF818201B7D002B5ED084
:1041B0000320FFF7EDFA002009B0BDE8F08F20687A
:1041C0004FF6FF73022205A9006801F017FC3AE7D9
:1041D0002368012218680DF113014FF6FF7301F0F7
:1041E0000DFC60E74FF47A7000F0A8FB012009B0E5
:1041F000BDE8F08F47F2CE03ADF81C309AF80030DE
:104200008DF8183033681B7D002B86D1012206AB58
:1042100007A90220FDF7CAFE7FE7FDF78BFD0146E7
:10422000090D090541F03C011D48FEF7E7F94FF47F
:10423000FA60FEF733F8002197E743F6F27477E768
:10424000022206AB104607A9FDF7B0FE9C22336898
:104250001B7DADF81840ADF81C20002B7FF472AF29
:10426000022206AB07A90120FDF7A0FE6AE704229F
:1042700006A907AB0220FDF799FE99E7022206ABDB
:10428000104607A9FDF792FE79E700BF440400201D
:104290004004002040030020140001000C00010035
:1042A00008000100C00FE0FF1000D20010B510F0B0
:1042B0001D0F82B000F0020232D0C40751D5584B16
:1042C0001B681B7D002A60D140F6874201ACADF827
:1042D0000420002B53D00321234601224420FDF764
:1042E0009BFC9DF8041011F0080140F08F802346DC
:1042F00004224C48FDF790FC9DF807009DF806103D
:104300009DF805209DF8043001EB002102EB01220D
:1043100003EB0223B3F5502F78D0002002B010BD7C
:104320003F4B81061B681B7D0DD5002A40D044F20F
:10433000A342ADF80420002BEFD11A4601A90120B9
:10434000FDF734FEE9E7002A39D043F29902ADF8CF
:104350000420002BE1D11A4601A90120FDF726FE19
:10436000DBE710F0080318D02D4B1B681B7D6AB3E8
:1043700043F69F4201ACADF80420002BABD11A46A6
:1043800021460120FDF712FEA5E743F29B4201AC56
:10439000ADF80420002B9ED1F1E710F010001ED0E4
:1043A00032B31A4619460E20FDF73CFE01AC92E7E7
:1043B00042F69742ADF80420002BAED1BDE740F2A3
:1043C0008342ADF80420002BA7D1B6E741F68F4217
:1043D00001ACADF80420002B7FF47DAFCFE772B1C4
:1043E0000346024601461020FDF71CFE01AC72E7B1
:1043F000134611460520FDF715FE01AC6BE7134689
:1044000011460920FDF70EFE01AC64E700231846B3
:104410001A461946FDF706FE4FF0FF307EE700BF53
:104420004004002030000F002DE9F04F85B002ABB2
:10443000074688461646002105227420FDF7ECFB4E
:104440009DF80C209DF80B30964D43EA02239DF811
:104450000A209DF808B042EA03222B68D97B9DF818
:104460000930012943EA02234BEA032B4FF00502EE
:1044700002AB00F0FC80032940F0FE8004214FF4E1
:10448000F010FDF7C9FB4BF2C00300229DF80C10A1
:10449000ADF804309DF80B309DF80A9043EA0123F3
:1044A00049EA03299DF809309DF808A043EA092349
:1044B0007D4C4AEA032A1AEB0404C9F3074949F17F
:1044C0000009230A43EA0963190A63F3070261F347
:1044D0000F22190C61F317421B0E63F31F622B6846
:1044E00002921B7D002B00F0CC8044F21A0024F4D1
:1044F000FF73002223F001031B184FF01A0009F08C
:10450000FF0141F1000190458DF8092060F3070299
:1045100014BFA82081208DF80800180A40EA016025
:1045200060F30F22180C40EA01401B0EF4B243EA7C
:104530000123BC7060F3174263F31F622B68C7F856
:104540000AB0C7F80EA0C7F8122093F81490B9F17A
:10455000000F6CD00120FFF7A9FE00285AD141F2CC
:104560004108524C524F02E0029B1B0646D423687E
:10457000ADF8048019895868002200F0EFFB20682C
:104580004FF6FF730222006801A900F0F5FF002832
:1045900044D0236801221989586800F0DFFB2B689A
:1045A0001B7D022BE0D19DF804309DF80510FA5CCC
:1045B0009DF808304A40BA5C9DF809105340FB5CF6
:1045C0009DF80A204B40FB5C18205340F95C9DF895
:1045D0000B300122594017F801900DF1030300211F
:1045E000FDF71AFB9DF803309945BDD02B685B6A37
:1045F000002BB9D09847029B1B06B8D5802241F208
:10460000C1012B68ADF8041002921B7D002B40D035
:104610000136F4B2204605B0BDE8F08F21684FF6B0
:10462000FF730422086802A901F0E8F9B1E73B46EC
:10463000424602A90120FDF7B9FC49F2C0312A68BF
:1046400008F1020343F40063127DADF80C30194BFE
:10465000ADF80E90ADF804100293002A7FF47AAF03
:10466000082202AB01A90220FDF7A0FC72E700219D
:104670001148FDF7D1FA06E700216420FDF7CCFAD6
:1046800001E7042202AB0DEB02010220FDF78EFCD4
:104690002BE7042202AB0DEB02010220FDF786FCA2
:1046A000B6E700BF400400201881AA02440400209D
:1046B0004003002000F400FC040018004DF2410CFF
:1046C00030B5364C85B02368002219895868ADF89A
:1046D00004C000F043FB21684FF6FF730868022214
:1046E00001A900F049FF00284ED023682C4C1989FD
:1046F0005868012200F032FB23681B7D022B14D086
:104700009DF80C009DF80B209DF80A1042EA00224B
:104710009DF8093041EA02219DF8080043EA01238F
:1047200040EA0320090C05B030BD1E489DF8043056
:104730009DF80510C35C9DF808204B40C35C9DF8B4
:1047400009105340C35C9DF80A204B40C35C9DF8A0
:104750000CC05340C35C9DF80B2000215340C35C48
:1047600001228CEA030C10F80C500DF10303182001
:10477000FDF752FA9DF803309D42C1D023685B6A71
:10478000002BBDD09847BBE721684FF6FF73052289
:10479000086802A901F032F9A7E700BF440400202D
:1047A000400400204003002000B5184B05221B6880
:1047B00083B0DB7B012B1DD0032B21D104214FF4CF
:1047C000F0106B46FDF728FA9DF804009DF80320D1
:1047D0009DF8021042EA00229DF8013041EA0221D0
:1047E0009DF8000043EA012340EA0320090C03B0CE
:1047F0005DF804FB00216B460548FDF70DFAE3E781
:10480000002164206B46FDF707FADDE74004002035
:104810000400180000230B6003780B60427803EB60
:1048200002230B60827803EB02430B60C27803EB38
:1048300002630B60704700BF02607047FDF7EAF942
:104840000B480C490C4A002302E0D458C4500433EE
:10485000C4188C42F9D3094A094C002301E01360C3
:104860000432A242FBD302F049FEFCF71DFC704764
:1048700000000020E0010020EC980008E00100208A
:10488000D4050020FEE70000704700BF10B54FF0D0
:10489000FF320024044B1A611C61DA60DC60FFF710
:1048A000F3FF204610BD00BF0010024038B54FF4A2
:1048B0007A730D4A054611780C4AB3FBF1F312687E
:1048C000B2FBF3F000F0A8F808B90F2D01D90120D0
:1048D00038BD0446024629464FF0FF3000F052F83A
:1048E000034B20461D6038BD100000200C00002046
:1048F00014000020074A08B51368032043F0100392
:10490000136000F02DF80F20FFF7D0FFFDF712F82D
:10491000002008BD00200240034A044B11681B78A8
:104920000B441360704700BF840400201000002077
:10493000014B1868704700BF8404002038B5044656
:10494000FFF7F6FF631C054602D0044B1B781C449E
:10495000FFF7EEFF401BA042FAD338BD1000002045
:104960004FF6FF0C06490302CA6803F4E06302EA4B
:104970000C02134343F0BF6343F40033CB60704732
:1049800000ED00E01B4B00B5DB68C3F30223C3F16D
:10499000070EBEF1040F03F1040C28BF4FF0040E04
:1049A000BCF1060F1CD9A3F1030C4FF0FF3303FA3F
:1049B0000CF322EA03024FF0FF3303FA0EF321EA6D
:1049C000030303FA0CF313431B010028DBB20ADBD9
:1049D00000F1604000F5614080F800335DF804FBB1
:1049E00000229446E7E7044A00F00F0002441376E1
:1049F0005DF804FB00ED00E0FCEC00E0002807DBC4
:104A0000012300F01F01034A40098B4042F8203087
:104A1000704700BF00E100E00138B0F1807F01D3B2
:104A2000012070474FF0E0234FF0F00C00220721E7
:104A300010B4044C586184F823C010469A6110BC2D
:104A40001961704700ED00E090F821200346022A2A
:104A500006D004229A630022012083F820207047A8
:104A60004FF0010C1A680020116821F00E0111604E
:104A7000116821F001011160D3E90F120CFA02F262
:104A80004A60002283F821C083F82020704700BFCD
:104A900090F821200346022A03D0042201209A63C1
:104AA0007047026810B511681B4821F00E011160B3
:104AB0001168824221F00101116022D017498A4217
:104AC0001DD014318A421ED014318A421ED01431B6
:104AD0008A421ED014318A4214BF4FF080724FF4C4
:104AE0008012012000210E4C62605A6B83F8210075
:104AF00083F820100AB118469047002010BD1022FC
:104B0000EFE70122EDE74FF48072EAE74FF48052BD
:104B1000E7E74FF48032E4E7080002401C0002405F
:104B2000000002402DE9F04F0D6883B0002D00F029
:104B3000C3800022804E92461346DFF80082804FE9
:104B400006E0013335FA03F402F1040200F0B48008
:104B500001249C4034EA050E04EA050CF1D14D68AD
:104B6000122D00F2AC80122D1AD8DFE805F0B3C583
:104B7000C1CC19191919191919191919191919BDA6
:104B8000C800DFF8C0E1754500F0A4800EF5702E76
:104B9000754500F09F80AEF5801E754500F09A8047
:104BA000BCF1FF0F9CBF864693464FF00F0584BFB4
:104BB00000F1040EA2F1200BDEF800400AFA0BF916
:104BC00005FA0BFB24EA0B0444EA0904CEF8004082
:104BD0004C6814F0805F00F08580D6F818E003F090
:104BE00003094EF0010EC6F818E0D6F818E04FEAB7
:104BF00089090EF0010ECDF804E0DDF804E023F0A1
:104C0000030E0EF1804E0EF5803EDEF808B005FA78
:104C100009F52BEA0505DFF830B1584513D00BF53F
:104C2000806B584579D0DFF824B158456ED0DFF855
:104C300020B158450CBF4FF0030B4FF0040B0BFA9B
:104C400009F945EA0905CEF80850DFF808E114F43F
:104C5000801FDEF8085014BF45EA0C0525EA0C0554
:104C6000CEF80850DFF8ECE014F4001FDEF80C502A
:104C700014BF45EA0C0525EA0C05CEF80C50DFF808
:104C8000D4E014F4003FDEF8045014BF45EA0C05EC
:104C900025EA0C05CEF804502E4D14F4803F2C6804
:104CA0001DD044EA0C042C600D68013335FA03F47E
:104CB00002F104027FF44CAF03B0BDE8F08F45452C
:104CC00008D07FF65EAFBD4204D0DFF88CE07545BA
:104CD0007FF466AF8D683DBB4FF0040A60E724EABD
:104CE0000C042C600D682CE7CC6804F1040A57E72B
:104CF000CC6804F1080A53E7D1F80CA050E7CC685F
:104D000004F10C0A4CE74FF0000A49E74FF0020BA0
:104D10000BFA09F945EA090595E74FF0010B0BFA83
:104D200009F945EA09058EE7012D4FF0080A0CBF85
:104D30000461446134E700BF00100240000022100B
:104D40000000311000001210000801400010014066
:104D500000140140000401400000321002B90904AF
:104D600001617047F8B5FFF7E3FD324C0546236853
:104D700043F00103236004E0FFF7DAFD401B022843
:104D800026D823689B07F7D5236841F2883723F09C
:104D9000F80343F080032360FFF7CAFD00230546B4
:104DA000244E636004E0FFF7C3FD401BB8420FD8F8
:104DB000736813F00C0FF6D11F49204B204A086886
:104DC0001A60FFF773FD044628B101242046F8BDA0
:104DD00003242046F8BDFFF7ABFD3368154D23F0E3
:104DE00080733360064604E0FFF7A2FD831B022BAD
:104DF000EED82B6813F00073F6D16B60FFF798FDC7
:104E00002B680C4E23F410232B60054604E0FFF7BB
:104E10008FFD401B6428DBD8336813F40033F6D1D0
:104E2000326822F480223260726A42F080727262CA
:104E3000B360CEE700100240140000200C000020F8
:104E400000127A00002800F0E4812DE9F0410368A7
:104E50000446DD0782B035D599494A6802F00C0254
:104E6000042A00F0ED804A6802F00C02082A00F0E3
:104E7000E3806368B3F5803F10D0002B00F00A8117
:104E8000B3F5A02F00F080818D4B1A6822F4803298
:104E90001A601A6822F480221A6004E0884A1368B3
:104EA00043F480331360FFF743FD854E054605E06C
:104EB000FFF73EFD401B642800F2E88033689A0348
:104EC000F6D523689F0728D57D4A516811F00C0F4D
:104ED00000F09680516801F00C01082900F08C80E8
:104EE0002369002B00F016810122764B744E1A6064
:104EF000FFF71EFD054605E0FFF71AFD401B0228DF
:104F000000F2C48033689807F6D53368626923F0ED
:104F1000F80343EAC203336023681A0729D45D0704
:104F20004BD5674BDA69D00000F184800125DA693E
:104F300042F08052DA61DB6903F080530093009BFA
:104F4000614E3368D90540F19180E368012B00F090
:104F5000F280002B00F0BE80052B594B1A6A00F03E
:104F6000208122F001021A621A6A22F004021A62F7
:104F7000E6E0A369002B4CD00122524B504EC3F8FF
:104F80008024FFF7D5FC054604E0FFF7D1FC401B69
:104F900002287BD8736A9B07F7D54C4B4C4A1B6899
:104FA000A2FB03235B0A019300BF019B5A1E0192DF
:104FB000002BF9D123685D07B3D4E369C3B1404D39
:104FC0006A6802F00C02082A00F0CD800022022B51
:104FD0003C4B1A6600F0ED80FFF7AAFC044604E0A3
:104FE000FFF7A6FC001B022850D82B689B01F7D4C2
:104FF000002002B0BDE8F0815268D6033FF570AFE3
:105000002F4A1268950725D52269012A22D001204E
:10501000EFE72C4A2A4EC2F88034FFF789FC054698
:1050200004E0FFF785FC401B02282FD8736A9F0716
:10503000F7D4BFE7002583E74A68D0037FF519AFAF
:105040001F4A126891037FF53DAF6268002A7FF422
:1050500039AFDCE71A4960690A6822F0F80242EACF
:10506000C0020A601A077FF55AAF82E7336843F43B
:1050700080733360FFF75CFC07463368DA053FF561
:1050800064AFFFF755FCC01B6428F6D9032002B0BB
:10509000BDE8F0810A4D2B6823F480332B602B6828
:1050A00023F480232B60FFF743FC064604E0FFF760
:1050B0003FFC801B6428E9D82B689B03F7D400E7EA
:1050C0000010024000004242007000400C0000202E
:1050D000D34D6210504E41F28838336A23F00103F9
:1050E0003362336A23F004033362FFF721FC07467F
:1050F00004E0FFF71DFCC01B4045C7D8336A980782
:10510000F7D4002D3FF459AF434AD36923F08053BD
:10511000D36152E7414A404E1360FFF709FC054650
:1051200004E0FFF705FC401B0228AFD8336899075D
:10513000F7D42368F1E6384A136A43F00103136297
:10514000FFF7F6FB41F288380646334F04E0FFF7DD
:10515000EFFB801B404599D83B6A9B07F7D5002D94
:105160003FF42BAFD0E7012B3FF451AF6B68226ABD
:1051700003F4803191427FF44AAF606A03F4701304
:10518000181A18BF012034E703F18043A3F53C331C
:105190001A6842F480221A601A6842F480321A6057
:1051A00081E642F004021A621A6A42F001021A62AF
:1051B000C6E7FFF7BDFB064605E0FFF7B9FB801B1E
:1051C00002283FF663AF2B689901F6D4236AB3F542
:1051D000803F05D16A68A16822F400320A436A6000
:1051E00001200D4D616A6A680B4322F474120B4969
:1051F00013436B600866FFF79BFB044605E0FFF76F
:1052000097FB001B02283FF641AF2B689A01F6D5A9
:10521000EEE60120704700BF00100240000042424D
:10522000002800F0AB805B4A2DE9F041136804468A
:1052300003F007038B420D460CD2136823F00703DB
:105240000B431360136803F007038B4202D0012065
:10525000BDE8F08123689E0714D5580704D54E4950
:105260004A6842F4E0624A60190704D54A494A682C
:1052700042F460524A604849A0684A6822F0F0024D
:1052800002434A60DA0720D56268434B012A1B6853
:1052900076D0022A6FD09E07D9D53F4E41F288388A
:1052A000736823F0030313437360FFF741FB074662
:1052B00004E0FFF73DFBC01B404564D8736862689B
:1052C00003F00C03B3EB820FF3D1324A136803F0FF
:1052D0000703AB4209D9136823F007032B4313607C
:1052E000136803F00703AB42B1D12368580706D512
:1052F0002949E0684A6822F4E06202434A601907DB
:1053000018D425494A6802F00C03042B20D0082B3E
:1053100020D0224B204A224852682249C2F303126D
:10532000805C214AC34008681360FFF7BFFA002081
:10533000BDE8F081184A2169536823F4605343EAB9
:10534000C103154953604A6802F00C03042BDED1F7
:10535000164BDFE71648C2F38343D203C35C14D570
:1053600012484A6800FB03F31249C2F340428A5CC8
:10537000B3FBF2F3CEE79F018FD468E701207047BB
:105380009B038AD463E7032062E70B4A02FB03F323
:10539000C0E700BF002002400010024000127A0067
:1053A000D4940008140000200C0000200024F40015
:1053B0005C9500085895000800093D00044B054A1B
:1053C0005B680549C3F30223CB5C1068D840704783
:1053D000001002400C000020CC940008044B054A49
:1053E0005B680549C3F3C223CB5C1068D8407047A3
:1053F000001002400C000020CC9400082DE9F04180
:1054000017461D4682B00C460646FFF791FA3D440A
:105410002D1AFFF78DFA284B01371B6818BF8046FD
:10542000C3F3CB3305FB03F33168019315D18B68CC
:1054300034EA0303FBD0002002B0BDE8F081FFF79F
:1054400077FAA0EB0800A8420CD2019A019B002A2F
:1054500008BF0025013B316801938B6834EA0303E0
:10546000EDD0E8E7D6E900315A68B1F5827F22F045
:10547000E0025A6013D0B26AB2F5005F07D11A6831
:1054800022F400521A601A6842F400521A60012293
:105490000023032086F8512086F85030CCE7B2680C
:1054A000B2F5004F02D0B2F5806FE4D11A6822F055
:1054B00040021A60DFE700BF0C000020002858D02F
:1054C000F8B5436A0446002B44D00023C0E90433F6
:1054D000002094F85130A06203F0FF02002B3FD06F
:1054E000D4E9013202264FF0010C002502F40442F7
:1054F00003F482731343E26884F85160266902F46E
:105500000062134306F0020633436669A169276A05
:1055100006EA0C063343E66907F0800E01F40077D3
:1055200006F038063B432268334343EA0E03034345
:105530001068090C01F0040120F0400010601360B5
:105540005160D369284623F40063D361656584F80C
:1055500051C0F8BD4268B2F5827FB9D0C361B7E7E8
:10556000204684F85020FCF707FAA06A00F40050A7
:10557000B6E70120704700BF2DE9F0431D4690F8C3
:10558000503083B0012B76D00123044680F8503090
:1055900089469046FFF7CCF994F851300646012B26
:1055A000DFB207D002270023384684F8503003B01A
:1055B000BDE8F083B9F1000FF5D0B8F1000FF2D0DB
:1055C00000230322A36384F85120A3876365236427
:1055D000A4F836806364E387A3682068B3F5004FBE
:1055E0008446C4F83090A4F8348075D003685B0614
:1055F00003D4036843F040030360E3686268B3F5D3
:10560000006F3DD0002A00F08C80B8F1010F00F04F
:105610008880E38E9BB2A3B1681C74D123689A681A
:10562000910740F18980226B12781A73E18E236B07
:10563000013989B2E186E18E013389B22363002901
:10564000ECD133462A4680212046FFF7D7FE0028BA
:1056500040F09980A36833B922680193D36801931D
:1056600093680193019B636D002B9CD101221F461F
:1056700084F8512097E70227384603B0BDE8F0834D
:10568000002A7CD1494631F8023BC360E38E216396
:10569000013B9BB2E386E38E9BB2002BD1D0691C09
:1056A00063D183689A070FD5226B32F8023BC3603F
:1056B000E38E2263013B9BB2E386E38E9BB2002B19
:1056C000BFD083689A07EFD4FFF732F9E38E9BB21D
:1056D000002BB6D02068E4E7036823F040030360A2
:1056E000036843F48043036080E7226B12781A73E7
:1056F000E38E226B013B01329BB22263E386E38E91
:105700009BB2002B9DD023689A689207EDD4FFF7D7
:105710000FF9831BAB42F2D30123032784F85130E6
:1057200041E799F800300373236B01332363E38E61
:10573000013B9BB2E3866CE7FFF7FAF8E38E9BB27E
:10574000002B7FF46BAF7CE7226B32F8023BCCF886
:105750000C30E38E2263013B9BB2E386E38E9BB267
:10576000002B3FF46EAFD4F800C0DCF808309B0784
:10577000EAD4FFF7DDF8831BAB42EFD3CCE7B8F1F7
:10578000010F88D17EE72022636D13436365626554
:1057900060E700BF2DE9F047044690F8500082B062
:1057A00001280A9E00F08C809846012384F850302E
:1057B0008A469146FFF7BCF894F851700546012FD0
:1057C0006368F9B20ED0B3F5827F06D002200023C1
:1057D00084F8503002B0BDE8F087A268002AF5D105
:1057E0000429F3D1BAF1000F00F0D180B9F1000F14
:1057F00000F0CD80B8F1000F00F0C98094F851207E
:105800002068042A1CBF052284F85120002262650A
:10581000A4F83E80A4F83680C4E910220268C4F8D7
:1058200038905206A4F83C80C4F830A0A4F8348024
:1058300003D4026842F040020260E268B2F5006FF1
:105840004DD0002B40D0B8F1010F3DD00127E28EA2
:1058500092B21AB9E38F9BB2002B7DD023689A686D
:1058600092070FD5E28E92B262B15FB10027226B30
:1058700012781A73E38E226B013B9BB20132E386EE
:10588000236822639A6812F001020DD0E18F89B279
:1058900051B11746DA68A36B1A70A36B0133A36387
:1058A000E38F013B9BB2E387FFF742F8401BB04216
:1058B000CDD3731CCBD00123032084F8513086E76D
:1058C000022002B0BDE8F0879AF800300373E38E3F
:1058D000226B013B01329BB22263E386B6E7002BC9
:1058E00057D1514631F8023BC360E38E2163013B3F
:1058F0009BB2E386731C4FF0010725D04DE0226870
:10590000936898070DD5E38E9BB253B147B1236BD3
:1059100033F8021BD1602363E38E013B9BB2E38625
:105920000027936813F001030CD0E18F89B249B1CD
:10593000D2681F46A36B23F8022BA363E38F013BBE
:105940009BB2E387FEF7F4FFE38E9BB2002BD6D128
:10595000E38F9BB2002BD2D12B46324680212046CA
:10596000FFF74CFD70B9A36833B923680190DA687A
:1059700001929B680193019B636D43B9012384F8F5
:10598000513024E72022636D134363656265012073
:105990001DE7B8F1010FADD1A3E7E38E9BB21BB9B0
:1059A000E38F9BB2002BD7D02268936899070DD55F
:1059B000E38E9BB253B147B1236B33F8021BD16026
:1059C0002363E38E013B9BB2E3860027936813F0C9
:1059D00001030CD0E18F89B249B1D2681F46A36B95
:1059E00023F8022BA363E38F013B9BB2E387FEF70F
:1059F0009FFF401BB042D0D35DE700BF2DE9F043CD
:105A000090F851700446012F83B06AD11D46436857
:105A10009146B3F5827F8846FEB26AD094F8503042
:105A2000012B00F09680012384F85030FEF780FFB0
:105A30000746B8F1000F55D0B9F1000F52D004223B
:105A40000023A16884F851202268B1F5004F6365F6
:105A5000C4E910332363A4F83E90A386E386C4F818
:105A600038801346A4F83C9007D1116821F040011A
:105A70001160116821F4804111601168490603D456
:105A8000116841F040011160E168002966D0E18FA2
:105A900089B289B1681C47D19368D90751D5D168BB
:105AA000A36B23F8021BE18FA363013989B2E1875D
:105AB000E38F9BB2002BEFD16368B3F5827F00F0D8
:105AC00086803B462A4680212046FFF797FC002827
:105AD00040F09380636D2BB901221E4684F851205B
