:020000040800F2
:10000000005000202D5F0008815B0008855B000820
:10001000895B00088D5B0008915B00080000000010
:10002000000000000000000000000000955B0008D8
:10003000995B0008000000009D5B0008A15B0008C0
:10004000755F0008755F0008755F0008755F000840
:10005000755F0008755F0008755F0008755F000830
:10006000755F0008755F0008755F0008755F000820
:10007000755F0008755F0008755F0008755F000810
:10008000755F0008755F0008755F0008755F000800
:10009000755F0008755F0008755F0008755F0008F0
:1000A000755F0008755F0008755F0008755F0008E0
:1000B000755F0008755F0008B15B0008755F000898
:1000C000755F0008755F0008755F0008755F0008C0
:1000D000755F0008BD5B0008755F0008755F00086C
:1000E000755F0008755F0008755F0008000000007C
:1000F0000000000000000000000000000000000000
:0C01000000000000000000005FF808F1A3
:1001100010B5054C237833B9044B13B10448AFF341
:1001200000800123237010BD780100200000000032
:10013000FC91000808B5034B1BB103490348AFF31A
:10014000008008BD000000007C010020FC91000838
:10015000034613F8012B002AFBD1181A0138704707
:1001600081F0004102E000BF83F0004330B54FEA68
:1001700041044FEA430594EA050F08BF90EA020FD5
:100180001FBF54EA000C55EA020C7FEA645C7FEA68
:10019000655C00F0E2804FEA5454D4EB5555B8BF8B
:1001A0006D420CDD2C4480EA020281EA030382EAFC
:1001B000000083EA010180EA020281EA0303362D8E
:1001C00088BF30BD11F0004F4FEA01314FF4801C61
:1001D0004CEA113102D0404261EB410113F0004F73
:1001E0004FEA03334CEA133302D0524263EB43032A
:1001F00094EA050F00F0A780A4F10104D5F1200EC8
:100200000DDB02FA0EFC22FA05F2801841F1000122
:1002100003FA0EF2801843FA05F359410EE0A5F1F6
:1002200020050EF1200E012A03FA0EFC28BF4CF027
:10023000020C43FA05F3C01851EBE37101F00045DD
:1002400007D54FF0000EDCF1000C7EEB00006EEBEA
:100250000101B1F5801F1BD3B1F5001F0CD3490874
:100260005FEA30004FEA3C0C04F101044FEA4452CB
:1002700012F5800F80F09A80BCF1004F08BF5FEA52
:10028000500C50F1000041EB045141EA050130BD32
:100290005FEA4C0C404141EB0101013C28BFB1F544
:1002A000801FE9D291F0000F04BF01460020B1FA8F
:1002B00081F308BF2033A3F10B03B3F120020CDA62
:1002C0000C3208DD02F1140CC2F10C0201FA0CF040
:1002D00021FA02F10CE002F11402D8BFC2F1200CA5
:1002E00001FA02F120FA0CFCDCBF41EA0C0190405B
:1002F000E41AA2BF01EB0451294330BD6FEA0404A4
:100300001F3C1CDA0C340EDC04F11404C4F120028E
:1003100020FA04F001FA02F340EA030021FA04F3A0
:1003200045EA030130BDC4F10C04C4F1200220FAF7
:1003300002F001FA04F340EA0300294630BD21FA35
:1003400004F0294630BD94F0000F83F4801306BFFB
:1003500081F480110134013D4EE77FEA645C18BFEF
:100360007FEA655C29D094EA050F08BF90EA020F86
:1003700005D054EA000C04BF1946104630BD91EA7E
:10038000030F1EBF0021002030BD5FEA545C05D181
:100390004000494128BF41F0004130BD14F58004C0
:1003A0003CBF01F5801130BD01F0004545F0FE4134
:1003B00041F470014FF0000030BD7FEA645C1ABF69
:1003C000194610467FEA655C1CBF0B46024650EAA0
:1003D000013406BF52EA033591EA030F41F40021CC
:1003E00030BD00BF90F0000F04BF0021704730B552
:1003F0004FF4806404F132044FF000054FF0000127
:1004000050E700BF90F0000F04BF0021704730B5E7
:100410004FF4806404F1320410F0004548BF4042BC
:100420004FF000013EE700BF42004FEAE2014FEA11
:1004300031014FEA02701FBF12F07F4393F07F4FEC
:1004400081F06051704732F07F4208BF704793F0EF
:100450007F4F04BF41F40021704730B54FF4607402
:1004600001F0004521F000411CE700BF50EA010205
:1004700008BF704730B54FF000050AE050EA0102AE
:1004800008BF704730B511F0004502D5404261EB1E
:1004900041014FF4806404F132045FEA915C3FF45F
:1004A000D8AE4FF003025FEADC0C18BF03325FEAFC
:1004B000DC0C18BF033202EBDC02C2F1200300FAAD
:1004C00003FC20FA02F001FA03FE40EA0E0021FAD2
:1004D00002F11444BDE600BF70B54FF0FF0C4CF4C0
:1004E000E06C1CEA11541DBF1CEA135594EA0C0F72
:1004F00095EA0C0F00F0DEF82C4481EA030621EAAD
:100500004C5123EA4C5350EA013518BF52EA0335E7
:1005100041F4801143F4801338D0A0FB02CE4FF099
:100520000005E1FB02E506F00042E0FB03E54FF0C9
:100530000006E1FB03569CF0000F18BF4EF0010EC1
:10054000A4F1FF04B6F5007F64F5407404D25FEABD
:100550004E0E6D4146EB060642EAC62141EA555170
:100560004FEAC52040EA5E504FEACE2EB4F1FD0CB2
:1005700088BFBCF5E06F1ED8BEF1004F08BF5FEA30
:10058000500E50F1000041EB045170BD06F00046E2
:1005900046EA010140EA020081EA0301B4EB5C048F
:1005A000C2BFD4EB0C0541EA045170BD41F4801187
:1005B0004FF0000E013C00F3AB8014F1360FDEBFAC
:1005C000002001F0004170BDC4F10004203C35DA88
:1005D0000C341BDC04F11404C4F1200500FA05F30B
:1005E00020FA04F001FA05F240EA020001F00042AC
:1005F00021F0004110EBD37021FA04F642EB060122
:100600005EEA430E08BF20EAD37070BDC4F10C044B
:10061000C4F1200500FA04F320FA05F001FA04F20F
:1006200040EA020001F0004110EBD37041F10001FB
:100630005EEA430E08BF20EAD37070BDC4F1200506
:1006400000FA05F24EEA020E20FA04F301FA05F26E
:1006500043EA020321FA04F001F0004121FA04F216
:1006600020EA020000EBD3705EEA430E08BF20EAE6
:10067000D37070BD94F0000F0FD101F00046400020
:1006800041EB010111F4801F08BF013CF7D041EAA2
:10069000060195F0000F18BF704703F000465200A6
:1006A00043EB030313F4801F08BF013DF7D043EA77
:1006B0000603704794EA0C0F0CEA135518BF95EA2D
:1006C0000C0F0CD050EA410618BF52EA4306D1D1B4
:1006D00081EA030101F000414FF0000070BD50EAD3
:1006E000410606BF1046194652EA430619D094EA5D
:1006F0000C0F02D150EA013613D195EA0C0F05D147
:1007000052EA03361CBF104619460AD181EA03019A
:1007100001F0004141F0FE4141F470014FF0000052
:1007200070BD41F0FE4141F4780170BD70B54FF0ED
:10073000FF0C4CF4E06C1CEA11541DBF1CEA13556D
:1007400094EA0C0F95EA0C0F00F0A7F8A4EB05044F
:1007500081EA030E52EA03354FEA013100F0888046
:100760004FEA03334FF0805545EA131343EA12630F
:100770004FEA022245EA111545EA10654FEA0026C4
:100780000EF000419D4208BF964244F1FD0404F57D
:10079000407402D25B084FEA3202B61A65EB0305D9
:1007A0005B084FEA32024FF480104FF4002CB6EB96
:1007B000020E75EB030E22BFB61A754640EA0C0016
:1007C0005B084FEA3202B6EB020E75EB030E22BF56
:1007D000B61A754640EA5C005B084FEA3202B6EB97
:1007E000020E75EB030E22BFB61A754640EA9C0056
:1007F0005B084FEA3202B6EB020E75EB030E22BF26
:10080000B61A754640EADC0055EA060E18D04FEAE3
:10081000051545EA16754FEA06164FEAC30343EA83
:1008200052734FEAC2025FEA1C1CC0D111F4801F50
:100830000BD141EA00014FF000004FF0004CB6E749
:1008400011F4801F04BF01430020B4F1FD0C88BFE8
:10085000BCF5E06F3FF6AFAEB5EB030C04BFB6EBF3
:10086000020C5FEA500C50F1000041EB045170BDE6
:100870000EF0004E4EEA113114EB5C04C2BFD4EB13
:100880000C0541EA045170BD41F480114FF0000E97
:10089000013C90E645EA060E8DE60CEA135594EA13
:1008A0000C0F08BF95EA0C0F3FF43BAF94EA0C0F16
:1008B0000AD150EA01347FF434AF95EA0C0F7FF48B
:1008C00025AF104619462CE795EA0C0F06D152EADF
:1008D00003353FF4FDAE1046194622E750EA4106C3
:1008E00018BF52EA43067FF4C5AE50EA41047FF4D4
:1008F0000DAF52EA43057FF4EBAE12E74FF0FF3C39
:1009000006E000BF4FF0010C02E000BF4FF0010C09
:100910004DF804CD4FEA410C7FEA6C5C4FEA430C82
:1009200018BF7FEA6C5C1BD001B050EA410C0CBFD1
:1009300052EA430C91EA030F02BF90EA020F002033
:10094000704710F1000F91EA030F58BF994208BF9A
:1009500090422CBFD8176FEAE37040F00100704757
:100960004FEA410C7FEA6C5C02D150EA013C07D1AE
:100970004FEA430C7FEA6C5CD6D152EA033CD3D0F9
:100980005DF8040B704700BF8446104662468C46F3
:100990001946634600E000BF01B5FFF7B7FF002826
:1009A00048BF10F1000F01BD4DF808EDFFF7F4FF4F
:1009B0000CBF012000205DF808FB00BF4DF808EDDA
:1009C000FFF7EAFF34BF012000205DF808FB00BFFD
:1009D0004DF808EDFFF7E0FF94BF012000205DF81F
:1009E00008FB00BF4DF808EDFFF7CEFF94BF0120D4
:1009F00000205DF808FB00BF4DF808EDFFF7C4FFCD
:100A000034BF012000205DF808FB00BF80F00040EB
:100A100002E000BF81F0004142001FBF5FEA4103D6
:100A200092EA030F7FEA226C7FEA236C6AD04FEAD6
:100A30001262D2EB1363C1BFD2184140484041401B
:100A4000B8BF5B42192B88BF704710F0004F40F4CD
:100A5000000020F07F4018BF404211F0004F41F4E9
:100A6000000121F07F4118BF494292EA030F3FD0B5
:100A7000A2F1010241FA03FC10EB0C00C3F12003C8
:100A800001FA03F100F0004302D5494260EB400057
:100A9000B0F5000F13D3B0F1807F06D340084FEAC2
:100AA000310102F10102FE2A51D2B1F1004F40EBB7
:100AB000C25008BF20F0010040EA0300704749001F
:100AC00040EB0000013A28BFB0F5000FEDD2B0FABC
:100AD00080FCACF1080CB2EB0C0200FA0CF0AABFDF
:100AE00000EBC25052421843BCBFD040184370477D
:100AF00092F0000F81F4000106BF80F40000013283
:100B0000013BB5E74FEA41037FEA226C18BF7FEA59
:100B1000236C21D092EA030F04D092F0000F08BF9B
:100B20000846704790EA010F1CBF0020704712F082
:100B30007F4F04D1400028BF40F00040704712F1C1
:100B400000723CBF00F50000704700F0004343F026
:100B5000FE4040F4000070477FEA226216BF08465C
:100B60007FEA23630146420206BF5FEA412390EA1F
:100B7000010F40F4800070474FF0000304E000BF15
:100B800010F0004348BF40425FEA000C08BF7047C6
:100B900043F0964301464FF000001CE050EA01028A
:100BA00008BF70474FF000030AE000BF50EA01029F
:100BB00008BF704711F0004302D5404261EB41018C
:100BC0005FEA010C02BF84460146002043F0B643B1
:100BD00008BFA3F18053A3F50003BCFA8CF2083AD6
:100BE000A3EBC25310DB01FA02FC634400FA02FCDF
:100BF000C2F12002BCF1004F20FA02F243EB0200E6
:100C000008BF20F00100704702F1200201FA02FC47
:100C1000C2F1200250EA4C0021FA02F243EB02003A
:100C200008BF20EADC7070474FF0FF0C1CEAD0527E
:100C30001EBF1CEAD15392EA0C0F93EA0C0F6FD03F
:100C40001A4480EA010C400218BF5FEA41211ED01D
:100C50004FF0006343EA501043EA5111A0FB013109
:100C60000CF00040B1F5000F3EBF490041EAD371DE
:100C70005B0040EA010062F17F02FD2A1DD8B3F15A
:100C8000004F40EBC25008BF20F00100704790F0C9
:100C9000000F0CF0004C08BF49024CEA502040EA1B
:100CA00051207F3AC2BFD2F1FF0340EAC2507047E1
:100CB00040F400004FF00003013A5DDC12F1190F1F
:100CC000DCBF00F000407047C2F10002410021FA91
:100CD00002F1C2F1200200FA02FC5FEA310040F1A9
:100CE000000053EA4C0308BF20EADC70704792F022
:100CF000000F00F0004C02BF400010F4000F013A5A
:100D0000F9D040EA0C0093F0000F01F0004C02BF54
:100D1000490011F4000F013BF9D041EA0C018FE7C3
:100D20000CEAD15392EA0C0F18BF93EA0C0F0AD0C9
:100D300030F0004C18BF31F0004CD8D180EA0100EF
:100D400000F00040704790F0000F17BF90F0004F88
:100D5000084691F0000F91F0004F14D092EA0C0F6A
:100D600001D142020FD193EA0C0F03D14B0218BFFD
:100D7000084608D180EA010000F0004040F0FE4043
:100D800040F40000704740F0FE4040F440007047DF
:100D90004FF0FF0C1CEAD0521EBF1CEAD15392EA5E
:100DA0000C0F93EA0C0F69D0A2EB030280EA010C4E
:100DB00049024FEA402037D04FF0805343EA1111E7
:100DC00043EA10130CF000408B4238BF5B0042F145
:100DD0007D024FF4000C8B4224BF5B1A40EA0C00EA
:100DE000B3EB510F24BFA3EB510340EA5C00B3EB1C
:100DF000910F24BFA3EB910340EA9C00B3EBD10F0A
:100E000024BFA3EBD10340EADC001B0118BF5FEA5B
:100E10001C1CE0D1FD2A3FF650AF8B4240EBC25084
:100E200008BF20F0010070470CF0004C4CEA502045
:100E30007F32C2BFD2F1FF0340EAC250704740F494
:100E400000004FF00003013A37E792F0000F00F086
:100E5000004C02BF400010F4000F013AF9D040EA04
:100E60000C0093F0000F01F0004C02BF490011F498
:100E7000000F013BF9D041EA0C0195E70CEAD15390
:100E800092EA0C0F08D142027FF47DAF93EA0C0F77
:100E90007FF470AF084676E793EA0C0F04D14B025B
:100EA0003FF44CAF08466EE730F0004C18BF31F00D
:100EB000004CCAD130F000427FF45CAF31F0004307
:100EC0007FF43CAF5FE700BF4FEA4002B2F1FE4F54
:100ED0000FD34FF09E03B3EB12620DD94FEA0023FC
:100EE00043F0004310F0004F23FA02F018BF4042D5
:100EF00070474FF00000704712F1610F01D14202BC
:100F000005D110F0004008BF6FF0004070474FF06F
:100F10000000704738B50022002304460D46FFF755
:100F20004DFD28B920462946BDE8384000F00AB8F2
:100F3000204605F1004100F005F8404261EB410117
:100F400038BD00BFD0B500220B4B06460F46FFF759
:100F5000C3FA00F015F80446FFF744FA0022074BE5
:100F6000FFF7BAFA02460B4630463946FFF7FCF85F
:100F700000F006F82146D0BD0000F03D0000F04131
:100F80004A0011D212F5001211D20DD56FF4787308
:100F9000B3EB62520ED44FEAC12343F0004343EA5D
:100FA000505323FA02F070474FF00000704750EAA8
:100FB000013002D14FF0FF3070474FF00000704712
:100FC0002DE9F0419B4C86B0E079002833D09A4D52
:100FD0009A4E2A88B31813F8011CFF2927D113F859
:100FE000021CFF2923D113F8033CFF2B1FD1052A34
:100FF00024D00A2A7BD0062A19D13378AA2B16D1FD
:101000007378BB2B13D1B378013B0F2B09D8DFE8E2
:1010100003F0615C08575208084B0808463E393116
:101020002C27874B874A1878115C03F04BFB002371
:101030000120E3712B8006B0BDE8F0813778002FE6
:101040007ED17378013BDBB2FD2BF0D904F066FE54
:101050007D4803F0A7F967612772C4F80A70E6E7D4
:101060001021774B774A1970DDE70F21744B754AD1
:101070001970D8E70E21754A714BC4F80A2019700F
:10108000704AD0E70D216E4B6E4A1970CBE70C21E8
:101090006F4A6B4BC4F80A2019706A4AC3E70B21E8
:1010A000674B684A1970BEE708210020644B654A07
:1010B00019701072B7E70521614B624A1970B2E7E7
:1010C00004215F4B5F4A1970ADE702215C4B5D4A1A
:1010D0001970A8E7BFF34F8F5E495F4BCA6802F4EF
:1010E000E0621343CB60BFF34F8F00BFFDE733785F
:1010F000022B9CD17378B6F802C0FF2BF7783079B9
:10110000B17996F802E04DD1002361F30703534A09
:101110006EF30F2367F3174360F31F6350724A485F
:10112000A2F807C082F82410C2F80B301361C2F88D
:101130001530C2F81A30C2F81F3003F033F976E7E1
:10114000012F51D0022F7FF472AF7278434B02EB24
:101150008202134493F802809A79414901A8DF780A
:101160001E7906F0B5FF01A803F01CF942463D497F
:1011700001A806F0ADFF01A803F014F93A463A4978
:1011800001A806F0A5FF01A803F00CF93246374983
:1011900001A806F09DFF01A803F004F9344803F00C
:1011A00001F944E7334F03EB830327F803C0023F01
:1011B0003B4418713048997103F0F4F804F0AEFD27
:1011C00073782E4903EB83000744B8792C4A0870E2
:1011D00002EBC30149686069884221D000231A48A4
:1011E000636103F0DFF822E7234803F0DBF804F043
:1011F00095FD7278194B02EB82010B44DFF8808079
:1012000098791E4958F832200870904700287FF4DA
:101210000EAF7278277208EBC2035B68636106E762
:1012200052F83330984701280ABF00230123636135
:101230002372FCE6B0060020020500200405002011
:10124000AC000020CC060020409200085A000100AB
:10125000DE03010000ED00E00400FA059401002027
:101260006092000870920008809200089092000836
:10127000A09200089601002050920008B9010020B9
:10128000B092000830B5144B00EB8000184483780E
:101290001546012B14BF052309230B70C3788DB0AD
:1012A000013B18BF01238B7190F804E00B4C0CAB91
:1012B0000DF1040C03EB8E0E0FCCACE80F000FCC3D
:1012C000ACE80F0094E807008CE807005EF82C3CBF
:1012D0006B600DB030BD00BF940100201492000877
:1012E00010B501EB000CB2F5445F82B0CCF30441C1
:1012F0002AD20CF07F044FEA840C4CEA4121090AFF
:1013000041F080018DF805C08DF804103AB164B940
:10131000104901200968097D89B102B010BD410062
:1013200061F07E018DF80410F2E741F040018DF884
:101330000410084902200968097D0029EDD101A99E
:1013400004F050FD02B010BDDB21034B034A0448FA
:1013500006F0CCFD00000020E89200084C93000845
:10136000F89200082DE9F04114460144B4F5445FB9
:1013700082B0C1F3044252D201F07F014FEA810CE6
:101380001E464CEA42239C465BBAADF804304FEA55
:101390001C2CACB10546C9B14FF0020840464CF0D8
:1013A000400C8DF804C0214F3346224601A904F0B9
:1013B00071FD3B681B7D022B0CD002B0BDE8F081B3
:1013C000EE211B4B1B4A1C4806F090FD4FF0010814
:1013D0004046E8E7182DF0D0184A9DF80430B8F1DF
:1013E000020FD55C03D19DF805306B40D55C3444C9
:1013F00016F8013B6B40A642D55CF9D10DF1030311
:10140000012200211820FFF7ADFF9DF803309D4217
:10141000D3D03B685B6A002BCFD09847CDE7DB2168
:10142000074B044A044806F061FD00BF000000209D
:10143000149300084C930008F8920008CC01002097
:10144000E892000842F2D62230B5154D154983B016
:101450002B680191ADF800201C7D0CB103B030BDAC
:101460000422694601AB022004F0BCFC2B6847F65D
:10147000E2611A7D1B7A8DF807408DF806304FF631
:10148000E073ADF80010ADF80430002AE6D1042274
:10149000694601AB022004F0A5FC03B030BD00BFDB
:1014A00000000020FFFF8001F0B5012242F2D607C4
:1014B0003E4C85B02368ADF80820ADF80C701B7D5C
:1014C000002B4BD003AE042244F2560533460220D3
:1014D0000DEB0201ADF8045004F0DCFC2368187D2C
:1014E00002280FD09DF80F109DF80E209DF80D30AA
:1014F0009DF80C0002EB012203EB022300EB03201A
:1015000005B0F0BD46F24006294B9DF804209DF839
:1015100005109A5CADF808604A409A5C9DF80C1082
:101520004A409A5C9DF80D104A409A5C9DF80E1056
:101530004A409A5C9DF80F104A409D5C02A9012226
:101540000DF1030304F0A6FC9DF8033022689D42D0
:10155000C8D0536A002BC5D09847C3E7022203AE18
:10156000054602AB1046314604F03CFC41F2D6027F
:1015700023681B7DADF80850ADF80C20002BA2D1DC
:10158000022202AB1046314604F02CFC02222368F2
:101590001B7DADF80C70ADF80820002B93D11046E0
:1015A000314602AB04F01EFC8DE700BF00000020B6
:1015B000CC01002070B50144044601F07F00830097
:1015C000C1F3044143EA4122134684B052BAADF854
:1015D000042008B3022630461B0A43F040038DF86E
:1015E00004300422264D03AB0DEB020104F052FC43
:1015F0002B681B7D022B12D09DF80F109DF80E203A
:101600009DF80D309DF80C0002EB012203EB022344
:1016100000EB032004B070BD01263046E1E7182C32
:10162000EAD018499DF80430022ECB5C03D19DF816
:1016300005205340CB5C46F240069DF80C209DF8F7
:101640000F005340CA5C9DF80D30ADF808605A4059
:101650008A5C9DF80E305340CB5C012258400C5CF4
:101660000DF10303022002A904F014FC9DF80330DD
:101670002A689C42C0D0536A002BBDD09847BBE774
:1016800000000020CC01002000B5014401F07F00E3
:101690004FEA800CC1F304434CEA43231B0A83B096
:1016A00043F0800301928DF800308DF801C058B1ED
:1016B00043F040038DF800300B4B02201B681B7D6C
:1016C00043B103B05DF804FB074B01201B681B7D91
:1016D000002BF6D1042269460DEB020304F082FBD5
:1016E00003B05DF804FB00BF00000020F0B54FF030
:1016F000020C002404220746664E85B0356803AB11
:10170000C5E90A44C5E90C44C5E90E44EC73AC8252
:101710006C8101200DEB0201A5F810C0ADF804406A
:1017200004F0B8FB33683C46187D022865D09DF86C
:101730000F209DF80E3003EB02239DF80D2002EBE5
:1017400003229DF80C3003EB0223534A23F01003CD
:10175000934203D04FF0FF3005B0F0BD0420FFF7F7
:10176000A3FE05460520FFF79FFE07460A20FFF768
:101770009BFE3268C0F304401072002D36D1202049
:10178000FFF792FE454B356898420CBF01230023BA
:10179000E0066B7278D4A10670D462065ED423068C
:1017A00063D43368D87A08B98522DA729A7AD2B1CA
:1017B0001F20FFF779FE024633681E205A73FFF799
:1017C00073FE10F07F0008BF2E2045F2D20233686E
:1017D00098738DF80800ADF80C201B7D002B36D0D7
:1017E000002005B0F0BD74229A72E1E7002FC6D048
:1017F0000028C4D0FFF726FEC1E746F24002284B7E
:10180000ADF808209DF804209DF80C109A5C4A4021
:101810009A5C9DF80D104A409A5C9DF80E104A4063
:10182000995C9DF80F204A409D5C02A901220DF1B0
:10183000030304F02FFB9DF8033032689D423FF410
:1018400076AF536A002B3FF472AF98476FE70122DF
:1018500003A902AB022004F0C5FAC1E70820FFF794
:1018600023FE3368987223069BD50920FFF71CFEE0
:101870003368C0B2D872002898D195E70720356840
:10188000FFF712FE686088E70620FFF70DFE28606C
:1018900081E700BF000000200203CADE4002001002
:1018A000CC01002000B5144B44F6E2021B6883B063
:1018B0001B7D38B91149ADF80020019193B103B0F7
:1018C0005DF804FB0E49ADF800200191002BF6D124
:1018D000042269460DEB0203022004F083FA03B0F0
:1018E0005DF804FB042269460DEB0203022004F0BC
:1018F00079FA03B05DF804FB000000201000D2006C
:101900007488D20404224FF00A0C70B5324D84B0B2
:1019100003AB04460DEB02010120ADF804C004F056
:10192000B9FA2B68187D022824D09DF80F309DF855
:101930000E20E50702EB03229DF80D3003EB022396
:101940009DF80C2002EB0322244B03EA020348BF5C
:1019500043F48023A10748BF43F4104362074FF0CC
:101960008A0248BF43F012030393ADF8082050B336
:1019700004B070BD46F24002194BADF808209DF846
:1019800004209DF80C109A5C4A409A5C9DF80D105A
:101990004A40995C9DF80E204A40995C9DF80F20C2
:1019A0004A409E5C02A901220DF1030304F072FA81
:1019B0009DF803202B68964203D05A6A0AB19047DB
:1019C0002B68187DB1E7042203AB02A9012004F0C3
:1019D00009FA04B070BD00BF00000020C00FE0FF96
:1019E000CC0100202DE9F04F052885B020D0AF2292
:1019F0004AF6B57B4AF67D784AF63E794AF2FE57BA
:101A00004AF6364A4AF6FE0302250092ADF80C303B
:101A100000238DF80F304EF2C603634CADF808304A
:101A200023688DF80E501E7D96B105B0BDE8F08F8D
:101A3000CF224CF6F57B4CF636784CF27E794CF2A0
:101A4000BE674CF23E4A4CF2FD0301250092DDE7F1
:101A5000042203AB022002A904F0C4F94FF2C6032A
:101A60002268127DADF80CA08DF80F608DF80E5035
:101A7000ADF808300192002AD7D1042203AB02202E
:101A800002A904F0AFF9C7232268167D019AADF8C8
:101A90000C708DF80F208DF80E50ADF80830002E28
:101AA000C3D1042203AB022002A904F09BF941F246
:101AB000C7032268177DADF80C908DF80F608DF884
:101AC0000E50ADF80830002FAFD1042203AB022036
:101AD00002A904F087F942F2C703226892F8149031
:101AE000ADF80C808DF80F708DF80E50ADF8083001
:101AF000B9F1000F99D1042203AB02A9022004F02E
:101B000071F9B52243F2C70321680E7D00998DF863
:101B10000F908DF80D108DF80E508DF80C20ADF84B
:101B20000830002E81D1042203AB022002A904F068
:101B300059F944F2C70223681B7DADF80CB08DF84B
:101B40000E508DF80F60ADF80820002B7FF46DAFBC
:101B5000042203AB022002A904F044F9134A2368CB
:101B60001B7D039247F2C602ADF80820002B7FF4DC
:101B70005CAF042203AB02A9022004F033F948F25F
:101B8000C60223680A491B7D0391ADF80820002B8B
:101B90007FF44BAF042203AB02A9022004F022F928
:101BA00005B0BDE8F08F00BF00000020400200102B
:101BB00089A46D1B43F2C8022DE9F043A24DA3494D
:101BC00085B02B680391ADF808201B7D03AF02AEF2
:101BD000002B00F01F81032448F24808142004F071
:101BE00093F80DF10303012231460220ADF808807D
:101BF00004F050F92B68187D02285FD09DF803206F
:101C0000631E012A7ED013F0FF04E7D14FF0FF34AA
:101C100000238DF8083043F2C803ADF80C302B6870
:101C20001B7D002B00F0CB8045F248030422ADF869
:101C3000043002203B460DEB020104F02BF92B6827
:101C4000187D022800F08C8047F248023B466FF076
:101C500060479DF80F00ADF804209DF80E2001A903
:101C600002EB00229DF80D0000EB02209DF80C20F5
:101C700002EB0022BA4208BF4FF0FF3402200422D8
:101C800004F008F92B68187D02283DD06FF0604100
:101C90009DF80F009DF80E309DF80D2003EB0023FA
:101CA00002EB03229DF80C3003EB02238B4214BF9E
:101CB00020464FF0FF3005B0BDE8F08346F2400308
:101CC000634AADF80C309DF808309DF80910D35CDC
:101CD0004B40D15C9DF803304B4012F803903946DD
:101CE000012201AB04F0D6F89DF804302A6899452A
:101CF00084D0536A002B81D098479DF80320631E3F
:101D0000012A80D1002483E746F240023146ADF833
:101D100008209DF804604E4A9DF80570965D0DF10F
:101D200003037E40965D9DF80C707E40965D9DF8A5
:101D30000D707E40965D9DF80E707E40965D9DF81C
:101D40000F707E40965D012204F0A4F89DF80330E8
:101D50002A689E429AD0536A002B97D0984795E7FD
:101D600046F240039DF80420ADF80830384B9DF84A
:101D700005109A5C4A409A5C9DF80C104A409A5CA7
:101D80009DF80D104A409A5C9DF80E104A409A5CEE
:101D90009DF80F104A4013F80280314601220DF1E0
:101DA000030304F077F89DF803302A6898453FF460
:101DB0004BAF536A002B3FF447AF984744E7334695
:101DC00001223946022004F00DF8012248F2C80130
:101DD0002B681B7DADF80C108DF80820002B7FF4CC
:101DE00023AF33463946022003F0FCFF40F2FF11D7
:101DF00043F6C8122B681B7DADF80810ADF80C2017
:101E0000002B7FF411AF022233463946104603F00F
:101E1000E9FF09E73B4604223146022003F0E2FFD6
:101E200041F2FF0143F2C8122B681B7DADF8081088
:101E3000ADF80C20002B7FF4CEAE0222334639469B
:101E4000104603F0CFFFC6E60000002001000200AC
:101E5000CC010020012801D0FFF7ACBE30B5022232
:101E6000044642F24F0085B02D4D01ABADF808009D
:101E700002A9104604F00EF82B68187D02281BD02A
:101E800042F2CF23274ABDF804400392ADF8083050
:101E900000283DD0FFF78EFE002142F2CF222B68B2
:101EA000ADF80C40ADF80E10ADF808201B7D0446CF
:101EB0003BB3204605B030BD46F240011A4BADF8A9
:101EC0000C109DF808102246595C9DF809406140AD
:101ED0005C5C9DF804106140595C9DF805406140D0
:101EE0005C5C0DF1030303A903F0D4FF9DF803200C
:101EF0002B68944203D05A6A0AB190472B68187D28
:101F0000BEE7042202A903AB022003F06BFFD0E777
:101F1000042202A903AB022003F064FFBAE700BF6A
:101F200000000020FFFF0501CC0100202DE9F04F4B
:101F3000037901788BB0182B02460190029100F2D0
:101F40009680C378182B94BF002301239B46034639
:101F50000125D9795B78B74E013BDBB2062B98BFE0
:101F6000B54ADDF8048098BF52F823A0326888BFD4
:101F70004FF4807A138A117323F0E003138298F8E8
:101F80000D400392023405FA04F41FFA84F94FEA73
:101F9000C9094846A1F10107FEF7EEFDA749FEF782
:101FA00043FEFEF791FFB7FA87F7039A4FF0000C54
:101FB000508244F2C03098F80C307F0953751B03EF
:101FC00003F4304198F808303F015B0103F020032F
:101FD0000B4398F80E108DF827C043EA01433B43AA
:101FE000ADF824301B0C8DF82630954BADF81C0055
:101FF0000893137D002B00F0D881594600293AD16F
:102000000DF1200807AF019D297B002900F02881F0
:10201000687B8C4931F81010A87B012840F21783A7
:102020000801C0F30A0000F58060B0F5006F4FEAC8
:10203000D11100D3013189B201F07F018DF8221056
:102040004FF68071ADF8201000218DF8231045F275
:10205000DC21CA44ADF81C10002B00F0F980BAF165
:10206000FF0F0FDD138A43F0200313820AE00123E0
:102070009B4603466CE7138A0DF1200843F060038A
:10208000138207AF45F242030422ADF81830022054
:10209000434606A903F0FEFE3368187D022800F0CF
:1020A00056810DF1170B9DF823309DF82220019CDD
:1020B00002EB03229DF82130E17803EB02239DF827
:1020C0002020C90002EB0322029BC9B2092B45F272
:1020D000C203ADF81C30237922F4FF524FEA0323E8
:1020E00003F4F85343EA0103617922F01F024FEA37
:1020F000410101F0060108BF42F001020B43134306
:102100000893002800F0688200236FF474428DF871
:1021100024308DF8273049F2C0330892019AADF887
:102120001C30537892791B0343EA82231A0A1B0C52
:102130008DF825208DF82630002800F04482019B80
:102140005B89002B72D0DAB21B0A8DF81D3040F685
:10215000CC038DF81C20ADF82030002800F09781CA
:10216000062441F2410ADFF8E09008E09DF81730BC
:10217000013C9B0737D414F0FF0400F0D482012007
:1021800003F0B8FD5B46012239460220ADF81CA0E1
:1021900003F080FE3368187D0228E7D146F2400242
:1021A0009DF81C30ADF8202019F803309DF81D2053
:1021B0004146534019F803309DF81720534019F851
:1021C0000350012206AB03F065FE9DF8183032681B
:1021D000AB42CBD0536A002BC8D098479DF817303C
:1021E000013C9B07C7D5019B32681B79093B0F2B2C
:1021F00000F2FB81537A012B00F00E820298FFF768
:10220000F1FB33681B7D46F2C6221049ADF81C2055
:1022100008912BB9434604223946022003F0E2FD1F
:1022200001200BB0BDE8F04FFFF714BE81220199E9
:102230004A818AE700000020309300086666663F06
:10224000CF4FFCFF5C930008CC010020FF810064AD
:10225000434604223946022003F0C4FD3268137D50
:10226000BAF1FF0F40F3E5816FF4C05E4FF4806C6C
:1022700042F2D630118A41F020011182CDE908ECFA
:10228000ADF81C00002B7FF4FDAE43460822394612
:10229000022003F0A7FD336893F81490FC238DF817
:1022A0001C304FF4E673019DADF82030AB788DF80B
:1022B0001D30B9F1000F7FF4E5AE02223B46104617
:1022C000414603F08FFD84223368013C1B7D8DF86D
:1022D0001C40ADF82020002B7FF4D4AE01223B46F9
:1022E0001046414603F07EFD6A783368072A1B7D5D
:1022F00000F0F9814AF2C0428DF81C90ADF8202020
:10230000002B7FF4BFAE3B4601224146022003F082
:1023100069FD33681A7D019B1B7B03F00303032BCC
:1023200043F2CC03ADF81C3000F0D78103F12F430A
:1023300003F5BE0303F51E530893002A7FF4A2AEF3
:10234000434604223946022003F04CFD9AE646F249
:1023500040039DF81820ADF81C30C44B9DF81910AF
:102360009A5C0DF1170B4A409A5C9DF820104A4088
:102370009A5C9DF821104A40995C9DF822204A40C1
:10238000995C9DF823204A409C5C39465B460122BB
:1023900003F080FD9DF817203368944203D05A6AF9
:1023A0000AB190473368187D7DE60DF1200807AF2C
:1023B000434608223946022003F014FD594632688C
:1023C000137D00293FF41FAE6FF4C05E4FF4406CE4
:1023D00042F2D630118A41F060011182CDE908EC59
:1023E000ADF81C00002B7FF44DAE43460822394661
:1023F000022003F0F7FC40F2063243F2DC033168BE
:1024000091F814900892ADF81C30B9F1000F7FF4E8
:1024100039AE434604223946022003F0E3FC43F67A
:10242000DC0233681B7DCDF82090ADF81C20002B1A
:102430007FF428AE434604223946022003F0D2FC42
:1024400044F6DC0233681B7DADF81C20884A0892F4
:10245000002B7FF417AE434604223946022003F0D6
:10246000C1FC7D2145F6DC0233681B7D8DF81C1014
:10247000ADF82020002B7FF405AE3B462A464146AE
:10248000022003F0AFFC336893F8149006E70222B1
:102490003B461046414603F0A5FC029A3368092AE0
:1024A00047F2CE021B7DADF81C2000F0E580714A9A
:1024B0000892002B7FF454AE434604223946022092
:1024C00003F090FC41F63C71922233681B7DADF81D
:1024D0001C10ADF82020002B7FF442AE3B460222B8
:1024E0004146012003F07EFC33681B7D14228DF8E9
:1024F0001C2044F2CF42ADF82020002B7FF430AEF8
:102500003B4601224146022003F06CFC0E2146F6B8
:10251000CE0233681B7D8DF81C10ADF82020002BF7
:102520007FF41EAE3B4601224146022003F05AFCD6
:10253000812142F2D20233681B7D8DF81C10ADF868
:102540002020002B7FF40CAE3B46012241460220A6
:1025500003F048FC022441F2C10233681B7DADF850
:1025600020208DF81C40002B7FF4FAAD3B46012261
:102570004146204603F036FC4FF4007141F2E2027E
:1025800033681B7DADF81C10ADF82020002B7FF4C4
:10259000E7AD3B4622464146204603F023FC40F28D
:1025A000FF1142F2E25233681B7DADF81C10ADF80A
:1025B0002020002B7FF4D4AD3B46224620464146E6
:1025C00003F010FCCCE5434608223946022003F014
:1025D00009FC3368187DB2E54346042239460220DF
:1025E00003F000FC3368187D8EE546F2C613FE2129
:1025F000ADF82030ADF81C10137D002B7FF410AE29
:1026000002223B464146104603F0ECFB01200BB092
:10261000BDE8F04FFFF71EBC0299137D05294AB2B1
:102620006CD0092A7FF4EFAD6FF400524FF40151E2
:1026300067E04FF4A0526FF4C051CDE9081242F2A6
:10264000D632ADF81C20002B3FF41FAE1AE54FF434
:10265000356000FB01F1C1F3CA1000F58060B0F5F0
:10266000006F4FEA9141FFF4E6ACE3E4CC010020B7
:102670000A5A0C003411071C2D4A0892002B7FF4D3
:102680006FAD434604223946022003F0ABFB40F60F
:102690003C71922233681B7DADF81C10ADF82020F0
:1026A000002B7FF45DAD3B4602224146012003F042
:1026B00099FB44F2CE0233681B7DADF81C201D4A05
:1026C0000892002B7FF44CAD434604223946022089
:1026D00003F088FB33681B7D08E7174B0893002A3B
:1026E0003FF42EAECEE408228DF81C204AF2C04200
:1026F000ADF82020002B3FF406AEC3E46FF4005287
:102700004021CDE9082142F2D632ADF81C20002B41
:102710007FF486AD434608223946022003F062FB6F
:1027200033681B7D6FE54FF0FF300BB0BDE8F08FD5
:102730003400011C33A8B508CC355FAF9C2200B52E
:102740000A4B83B01B68ADF800001B7DADF8042078
:1027500013B103B05DF804FB02226B4601A901200E
:1027600003F040FB03B05DF804FB00BF0000002055
:1027700041F2C20200B50A4B83B01B68ADF80000FD
:102780001B7DADF8042013B103B05DF804FB0222F9
:102790006B46104601A903F025FB03B05DF804FB6E
:1027A0000000002002EB000CBCF5806F50DA2DE930
:1027B000F0437F2A064614460D4683B010D91421F3
:1027C00041F2FE02244F01913B68ADF8002093F8DE
:1027D0001480B8F1000F0ED0002003B0BDE8F083E4
:1027E0000B46024621464FF4A010FEF779FD00206B
:1027F00003B0BDE8F083042201AB6946022003F078
:10280000F1FA42F2FE033A6892F81490ADF80440EF
:10281000ADF80680ADF80030B9F1000FDCD104222C
:1028200001AB6946022003F0DDFA002E14BFBA2284
:1028300081223B681B7D8DF805908DF80420002BCC
:10284000CAD12B46324601A9012003F0CBFAC3E7D7
:102850004FF0FF30704700BF0000002030B5314C12
:102860007F29236885B01B7D40EAC22013D800244D
:1028700049F2C03240EA01402B49ADF80C00000C8F
:1028800002918DF80E008DF80F40ADF80420002B5A
:1028900037D005B030BD49F2C032234D803140EA17
:1028A0000140CDE90250ADF8042001AD93B30122FF
:1028B00010200DF10203ADF804002946104603F084
:1028C000E9FA2368187D0228E3D146F2400C174A42
:1028D0009DF804309DF80210D35CADF808C04B4061
:1028E000D55C02A901220DF1030303F0D3FA9DF890
:1028F000033022689D42CCD0536A002BC9D0984740
:10290000C7E7082201A90DEB0203022003F06AFACF
:1029100005B030BD082229460DEB0203022003F06A
:1029200061FAC4E70000002000F400FCCC010020A4
:102930002DE9F0413D4F15463E680A44F37B84B0D3
:10294000032B15BF122313234FF4901C4FF4981C34
:10295000B2F5806F27DA7F2D0C46804608D80346F3
:102960000A466046294604B0BDE8F041FEF7FABCCD
:102970008DF80C3041F2FE020023ADF808208DF8EE
:102980000D30ADF80E30367DB6B13A23ADF80830D3
:1029900064B143462246012002A903F07BFA3B685A
:1029A0001B7D022B21D004B0BDE8F081EE21204B2D
:1029B000204A214805F09AFA042203AB022002A91A
:1029C00003F010FA42F2FE023B681B7DADF80C509A
:1029D000ADF80E60ADF80820002BD6D1042203AB71
:1029E00002A9022003F0FEF9CFE74046134A9DF802
:1029F00008304444D55C10F8013B6B40A042D55CE4
:102A0000F9D146F2400401220DF10703022003A987
:102A1000ADF80C4003F03EFA9DF807303A689D424D
:102A2000C1D0536A002BBED09847BCE700000020FD
:102A3000149300084C930008F8920008CC01002081
:102A400030B54C4C0222236885B0DD7B012D19D0B6
:102A5000032D3DD143F27C0001ABADF8080002A983
:102A6000104603F017FA2368187D022861D0BDF8DC
:102A70000400C0F30C00C30448BF40F4604000B23F
:102A800005B030BD43F2700001ABADF8080002A9FB
:102A9000104603F0FFF92368187D0228E7D12A4683
:102AA00046F24005344B9DF80810ADF80C50595CC7
:102AB0009DF8095069405D5C9DF804106940595CBF
:102AC0009DF8055069405D5C0DF1030303A924E006
:102AD00048F2580001ABADF8080002A9104603F017
:102AE000D9F92368187D0228C1D1234B9DF808200D
:102AF0009DF809109A5C46F2400C4A409A5C9DF899
:102B00000410ADF80CC04A409A5C9DF805104A408C
:102B10009D5C01220DF1030303A903F0BBF99DF8AD
:102B2000033022689D42A2D0536A002B9FD0984761
:102B30009DE746F2400C104B9DF808209DF80910C7
:102B40009A5CADF80CC05140595C9DF804204A4095
:102B50009A5C9DF805104A409D5C03A901220DF185
:102B6000030303F097F99DF803302268AB42DBD1F1
:102B70007DE700BF00000020CC01002030B54DF201
:102B80004103044685B01D4DADF8083005222346AB
:102B9000022002A903F07EF92B68187D022801D0DB
:102BA00005B030BD46F2400215499DF80830ADF839
:102BB0000C20CB5C9DF809205340CB5C227853401D
:102BC000CB5C62785340CA5CA3785340CB5CE2781C
:102BD00024795340CB5C01225C400C5D0DF107036E
:102BE00003A903F057F99DF807302A689C42D7D013
:102BF000536A002BD4D0984705B030BD00000020A8
:102C0000CC01002070B54E4E0446336884B0DD7BA5
:102C1000012D11D0032D3CD141F27C050346052244
:102C2000022002A9ADF8085003F034F93368187D8A
:102C3000022869D004B070BD41F2700C0346052231
:102C4000022002A9ADF808C003F024F93368187D0A
:102C50000228EFD146F240013A4BADF80C109DF836
:102C600008102A46595C9DF809506940595C25783E
:102C70006940595C657869405D5CA1786940595C40
:102C8000E57824796940595C61405C5C0DF107038B
:102C90002CE049F2410503460522022002A9ADF8C5
:102CA000085003F0F7F83368187D0228C2D146F2C5
:102CB000400224499DF80830ADF80C20CB5C9DF80B
:102CC00009205340CB5C22785340CB5C6278534060
:102CD000CA5CA3785340CA5CE3785340CB5C22794A
:102CE00083EA020401220C5D0DF1070303A903F03E
:102CF000D1F89DF8073032689C429BD0536A002B74
:102D000098D0984704B070BD46F240020D499DF836
:102D10000830ADF80C20CB5C9DF809205340CB5C0B
:102D200022785340CB5C62785340CB5CA27853400E
:102D3000CB5CE27824795340CB5C5C40D2E700BFA7
:102D400000000020CC010020042242F2420C70B5A9
:102D50002F4D84B003AB04460DEB02010220ADF809
:102D600004C003F097F82B68187D02281AD09DF84C
:102D70000F209DF80E30C4F3130403EB02239DF8DB
:102D80000D2002EB03229DF80C3003EB022342F2EC
:102D9000C2021B0D1B051C430394ADF8082070B341
:102DA00004B070BD46F240021A4BADF808209DF801
:102DB00004209DF805109A5C4A40995C9DF80C200F
:102DC0004A409A5C9DF80D104A409A5C9DF80E109E
:102DD0004A40995C9DF80F204A409E5C02A901225E
:102DE0000DF1030303F056F89DF803202B6896427B
:102DF00003D05A6A0AB190472B68187DB7E70422BE
:102E000003AB02A9022002F0EDFF04B070BD00BFC9
:102E100000000020CC010020022241F6410030B524
:102E20001D4C85B001ABADF8080002A9104603F0B7
:102E300031F82368187D022805D0BDF80400C0F3DE
:102E4000002005B030BD46F2400C144B9DF8082020
:102E50009DF809109A5CADF80CC05140595C9DF882
:102E600004204A409A5C9DF805104A409D5C03A9E5
:102E700001220DF1030303F00DF89DF803302268E1
:102E80009D42DAD0536A002BD7D09847BDF8040092
:102E9000C0F3002005B030BD00000020CC010020B0
:102EA00030B5424D10F001022B6885B01B7D0FD06C
:102EB00004466FF47C614FF4107240F2CA30CDE9E1
:102EC0000212ADF804003BB3A30751D405B030BDE6
:102ED0006FF47C6040F2CA31CDE90202ADF8041013
:102EE000002BF3D1082202AB01A9022002F07AFFE5
:102EF0004FF6FF6145F6E2222B681B7D0291ADF88B
:102F00000420002BE2D1042202AB0DEB02010220CF
:102F100002F068FF05B030BD082202AB01A9022013
:102F200002F060FF4FF404024FF0FF312B681B7D6D
:102F3000CDE9021241F2E232ADF80420002BC3D1F8
:102F4000082202AB022001A902F04CFF2B68A20765
:102F50001B7D20D5164A029245F6E202ADF8042008
:102F600033B90422022002AB0DEB020102F03AFF5A
:102F70004FF4887145F6E2022B680291ADF8042007
:102F80001B7D002BA2D1042202AB0DEB020102201B
:102F900002F028FF9AE74FF4887145F6E2020291A9
:102FA000ADF80420002BAED090E700BF0000002059
:102FB00010010F004BF2C00200B50A4B83B01B6832
:102FC00001901B7DADF8002013B103B05DF804FB48
:102FD000042269460DEB0203022002F003FF03B056
:102FE0005DF804FB0000002030B5924C10F01D0F7E
:102FF000236885B01B7D00F002025AD0C50747D573
:10300000002A40F0818040F68742ADF80C20002B6A
:1030100049D041F6414C0DF103030122022002A9DF
:10302000ADF808C002F036FF2368187D02287FD073
:103030009DF80330180720D404224CF25E0C03AB39
:1030400002200DEB0201ADF804C002F023FF23685B
:10305000187D022800F08D809DF80F109DF80E302D
:103060009DF80D2003EB012302EB03229DF80C30A9
:1030700003EB0223B3F5502F30D181222368ADF842
:103080000C201B7D002B00F0CE804FF0FF3026E09F
:10309000010741D5002A00F0AE8043F69F42ADF80B
:1030A0000C20002BB5D11A4603A9012002F09AFE8C
:1030B000AFE781060BD502B344F2A342ADF80C2072
:1030C00063B91A4603A9012002F08CFE06E042B95A
:1030D00040F28342ADF80C20002BF2D0002005B066
:1030E00030BD43F29902ADF80C20002BF6D11A4600
:1030F00003A9012002F076FEF0E742F69742ADF810
:103100000C20002BEAD1DCE743F29B42ADF80C2007
:10311000002B7FF47EAFC6E7C50663D5002A7AD0C0
:1031200043F69D02ADF80C20002B7FF472AFBAE796
:1031300046F24003404AADF80C309DF808309DF847
:103140000910D35C4B40D35C9DF803104B40D55C19
:1031500003A9012201AB02F09DFE9DF80430226814
:10316000AB423FF465AF536A002B3FF461AF984721
:103170005EE746F240029DF80450ADF808202E4A62
:103180000DF1030312F805C09DF8055002A98CEA61
:10319000050C12F80CC09DF80C508CEA050C12F8C6
:1031A0000CC09DF80D508CEA050C12F80C509DF8DF
:1031B0000EC08CEA050C12F80CC09DF80F508CEA7A
:1031C000050C12F80C50012202F064FE9DF8033049
:1031D00022689D423FF440AF536A002B3FF43CAF5E
:1031E000984739E77AB144F2A102ADF80C20002BE0
:1031F0007FF40FAF57E741F68F42ADF80C20002B5C
:103200007FF407AF4FE742F29342ADF80C20002B5A
:103210007FF4FFAE47E741F28B42ADF80C20002B64
:103220007FF4F7AE3FE71A4603A9012002F0DAFD6A
:103230002BE700BF00000020CC01002070B584B057
:1032400078B120F00203013B04460F2B40D8DFE8A1
:1032500003F0143F3F423F3F3F453F3F3F3F3F3F2B
:103260003F4840F685023F4BADF80C201B681B7DA4
:10327000002B6BD0002004B070BD41F28902394DA3
:10328000ADF80C202B681B7D002B59D041F6414C2A
:103290000DF106030122022002A9ADF808C002F0D8
:1032A000F9FD2B68187D02282AD09DF806301B07EF
:1032B000E0D581222B68ADF80C201B7D002B4BD074
:1032C00014F0020304D11A4619460220FEF708F84A
:1032D0004FF0FF30CFE742F69502D0E742F291027D
:1032E000CDE741F68D021F4DADF80C202B681B7DFC
:1032F000002BCBD11A4603A9012002F073FDC5E7CC
:1033000046F24001184A9DF80830ADF80C10D35C25
:103310009DF809104B40D15C9DF806304B40D65CBF
:1033200003A901220DF1070302F0B4FD9DF8073057
:103330002A689E42B9D0536A002BB6D09847B4E7AA
:103340001A4603A9012002F04DFD9FE71A4603A982
:10335000012002F047FD8DE71A4603A9012002F083
:1033600041FDADE700000020CC01002010B51B4C52
:1033700082B023681B7D38B14DF2C0020190ADF8D8
:1033800000209BB102B010BD4FF6FF5144F2C022A5
:103390000191ADF80020002BF4D1042269460DEB19
:1033A0000203022002F01EFD02B010BD0422694695
:1033B00001AB022002F016FD44F2C0222368084946
:1033C0001B7D0191ADF80020002BDBD10422694662
:1033D00001AB022002F006FD02B010BD000000208B
:1033E000FFFF000241F2CC0200B50A4B83B01B681C
:1033F000ADF800001B7DADF8042013B103B05DF8FB
:1034000004FB02226B46104601A902F0EBFC03B05C
:103410005DF804FB000000202DE9F04341F2E202D8
:1034200041F62205AC4C85B02368ADF80450ADF8E8
:1034300008201B7D002B00F0B78001AD44F250073F
:10344000A64E04E09DF8023013F0010331D00DF1D7
:103450000203012229460220ADF8047002F01AFD91
:103460002368187D0228EDD146F2400E9DF8043005
:103470009DF80520F35C9DF802C05340F35C0122E7
:103480008CEA030C02A90DF1030316F80C80ADF8C9
:1034900008E002F0FFFC9DF8033022689845D1D087
:1034A000536A002BCED098479DF8023013F00103E9
:1034B000CDD141F2CE0202932368ADF804201E7DE7
:1034C000002E3BD047F24E060DF1020301222946A1
:1034D0000220ADF8046002F0DDFC2368187D0228AC
:1034E00006D09DF8020000F03F0005B0BDE8F08373
:1034F00046F24006794A9DF804309DF80510D35CE9
:10350000ADF808604B40D35C9DF802104B40D55C91
:1035100002A901220DF1030302F0BCFC9DF8033067
:103520002268AB42DDD0536A002BDAD098479DF871
:10353000020000F03F0005B0BDE8F083042202ABBA
:103540002946022002F04EFC42F2CF032268177D8A
:103550000296ADF80430002FB4D1042202AB294604
:10356000022002F03FFC8E2223681B7D0297ADF8FB
:103570000420002BA6D1042202AB2946012002F030
:1035800031FC4FF4007223681B7DADF8042041F23A
:10359000E202ADF80820002B94D102222B461046FF
:1035A00002A902F01FFC8DE7022201AD2B4607465F
:1035B0000E46104602A902F015FC4FF0FF3842F209
:1035C000CF394FF0082223681B7DCDF80880ADF875
:1035D00004900392002B7FF431AF082202AB2946FE
:1035E000022002F0FFFB4FF0601223681B7DCDE943
:1035F0000282ADF80490002B7FF420AF082202ABCA
:103600002946022002F0EEFB40F2CE322368052E5E
:103610001B7DCDF80880ADF8042035D0DFF8C090D0
:10362000CDF80C90002B7FF409AF02AB082229469D
:10363000022002F0D7FB2368092E1B7D43D047F2FE
:10364000D002C7F30B00ADF80400ADF80820002B42
:103650007FF4F4AE02222B46104602A902F0C2FB10
:1036600040F2FF3144F2D01223681B7DADF8041004
:10367000ADF80820002B7FF4E1AE02222B46104665
:1036800002A902F0AFFBD9E6164E0396002B7FF499
:10369000D5AE082202AB2946022002F0A3FB41F27C
:1036A000CE3223681B7DCDE90286ADF80420002BC5
:1036B0007FF4C4AE02AB08222946022002F092FB3E
:1036C00023681B7DBBE741F2CE32CDE90289ADF81C
:1036D0000420002BEED0B1E600000020CC01002039
:1036E000001C0002003C0002F0B50389044685B0CE
:1036F0006BB947F2CE02314D01782B688DF8081076
:10370000ADF80C201B7D002B4ED005B0F0BD45F26E
:10371000420C2A4D02AE0DF1060301223146022071
:10372000ADF808C002F0B6FB2B68187D02281BD04C
:103730009DF80630208913F0010F14BF09210521DF
:10374000FFF76AFE2B681B7D43F2C2026168ADF889
:1037500008200391002BD8D10422314603AB02206C
:1037600002F040FB05B0F0BD46F24003144AADF84C
:103770000C309DF808309DF80910D35C4B40D15CAB
:103780009DF806304B40D75C03A901220DF10703D9
:1037900002F080FB9DF807302A68BB42C8D0536A0C
:1037A000002BC5D09847C3E702AE33460122022062
:1037B00003A902F017FB2B681B7DC5E70000002062
:1037C000CC01002038B502F0A9FA022002F092FAEA
:1037D00001233A4C238203E0228AB2F5967F46D831
:1037E000FFF71AFB03460028F6D000202082FDF7E1
:1037F0007DFF01305ED00520314A3249FDF742FDA0
:103800003048FEF793FB002856D12F4D2C48FFF788
:103810006BFFEB7F002B37D043F6F270FEF7A8FF6B
:1038200043F6F270FEF78AFF2B7F002B37D14FF45F
:103830002F70FFF789FA4FF49670FFF797FD052078
:10384000FFF7D0FD0720FEF75DF80020FEF72AF80D
:103850000320FFF725FB002501231C491C4A1D48B6
:103860000D701570E38100F09DFD284638BD1A48A3
:10387000238200F097FD4FF47A7002F03BFA17486C
:1038800000F090FD012038BD44F21A00FEF770FFF1
:1038900044F21A00FEF752FF2B7F002BC7D03C20CA
:1038A000FFF752FA4FF4FA60FFF760FD0020FFF7D0
:1038B00099FDC7E70A48DCE70A48DAE7B0060020C6
:1038C0000400002048000020940100207003002024
:1038D0000C030020E49300086C9300084092000859
:1038E00094930008BC9300082DE9F04FB64DB749FA
:1038F0002B788DB000220A208B70FEF753FF0C202E
:1039000001220021FEF7AAFF0220FFF76DFB00282D
:1039100040F03681AE4C00214420FDF74BFE2042A2
:10392000F9D02B7810F4804103F101032B7014D1EE
:103930004420A84AFDF7A8FE40F6B833A64CE28919
:103940009A4204D90123A548E38100F02BFDA44B42
:10395000C4F80A300DB0BDE8F08F4FF48142002169
:103960004420FDF791FE00214C20FDF723FEC0F31B
:103970000901142940F21A8100239A480A229A491F
:10398000837004F008FC0028D6D101F0D9FD974FD0
:10399000DFF85C82C7E9000101F0EEFD954E98F872
:1039A0001C30C6E90001002B40F0C381924C041981
:1039B00041F10001240A44EA01642046FFF7FAFAC3
:1039C000230298F81F2023F4FF7323F00103240E31
:1039D000002A40F0A88144F21A029B1844F1000426
:1039E000DFF818828648C8E90034D7E9002301F0DF
:1039F000F1FDD6E90023834801F0ECFDD8E900236E
:103A0000814801F0E7FD81492B78002216208B7058
:103A1000FEF7C8FE182001220021FEF71FFF01203B
:103A2000FFF7E2FA002800F0B280FFF709F8FDF78F
:103A3000A7F84FF04A51FDF7F7F80AA981467448F4
:103A400001F06CFD0BA9734801F068FD3B6830681C
:103A5000DFF8C481C01AFDF793F80446DDE90A30A7
:103A6000C01AFDF78DF8494605464FF07E50FCF729
:103A7000D1FF01462846FDF7D7F801462046FCF75E
:103A8000C9FFFCF7D1FC0022644BFCF725FD4AA3DB
:103A9000D3E90023FCF720FD49A3D3E90023FCF779
:103AA0001BFD98F800700446092F0D4600F2BE80F9
:103AB0005B4E7B1C06EBC707C7E90045DCB2002262
:103AC000D6E90001002388F80040FCF74FFB012CE9
:103AD00002460B4645D0D6E90223FCF747FB022CF1
:103AE00002460B463DD0D6E90423FCF73FFB032CEE
:103AF00002460B4635D0D6E90623FCF737FB042CEB
:103B000002460B462DD0D6E90823FCF72FFB052CE7
:103B100002460B4625D0D6E90A23FCF727FB062CE4
:103B200002460B461DD0D6E90C23FCF71FFB072CE1
:103B300002460B4615D0D6E90E23FCF717FB082CDE
:103B400002460B460DD0D6E91023FCF70FFB0A2CDA
:103B500002460B4605D1D6E91223FCF707FB0246C5
:103B60000B463049C1E900232F4800F01BFC01231C
:103B7000194CE3811A4BC4F80A300DB0BDE8F08F40
:103B8000154C174BC4F80A300DB0BDE8F08F00217A
:103B90004420FDF70FFD0306F9D5802200214420C3
:103BA000FDF772FD2B7801332B703EE700220D48A4
:103BB000FEF7BEFEE0E600BFFA48CE3B1835B13D49
:103BC0000000001319DDB141F40300203C00002087
:103BD00000D0272480902724B0060020F893000806
:103BE00064000100E003002028000020D80300202A
:103BF00094010020D00300201881AA02C8030020ED
:103C00001A0000201E0000202200002010000020CA
:103C1000EA030020EE030020700300200000E03FD4
:103C20007803002018030020BC0100204A4BD3E990
:103C30000023FCF799FA0022484B21F00041FCF7E1
:103C4000BDFE00287DD00021DFF814A1454E464B73
:103C50007A1E197050463146D20004F028FBDAE98A
:103C60000289DAE906BCDAE90001B6466EE80289A3
:103C70000022CEE906BCCEE912450023CAE912456E
:103C800046E90201DAE90467CDE900BCDAE908BCDB
:103C9000CEE90467CEE908BCCDE902BCDAE90ABC8A
:103CA000CEE90ABCCDE904BCDAE90CBCCEE90CBC17
:103CB000CDE906BCDAE90EBCCDE908BCCEE90EBC04
:103CC0000AF1400BDBE900ABCEE910ABFCF74EFA92
:103CD00042464B46FCF74AFA32463B46FCF746FA68
:103CE000DDE90023FCF742FADDE90223FCF73EFAA6
:103CF000DDE90423FCF73AFADDE90623FCF736FA9E
:103D0000DDE90823FCF732FA52465B46FCF72EFA4F
:103D10002B462246FCF72AFA0F4BC3E90045134B0A
:103D2000C3E9000120E743F6F2729B1844F1000456
:103D300056E60F4C041941F10001240A44EA0164DB
:103D40003BE6094A13780133DBB2142B92BF1370A0
:103D5000107088F8000007E71003002000003440CE
:103D600020030020800300200C0300201803002003
:103D70005882B60538B501F0D1FF022001F0BAFF34
:103D800001232C4C238203E0228AB2F5967F37D898
:103D9000FFF742F803460028F6D00020FDF7A6FC06
:103DA000013043D00620244A2449FDF76BFA23480A
:103DB000FEF7BCF800283BD11F48FFF795FC204BCD
:103DC00093F824304BB343F6F270FEF7D1FC43F680
:103DD000F270FEF7B3FC0720FDF794FD0020FDF71D
:103DE00061FD0320FFF75CF8002501231549164A01
:103DF00016480D701570E38100F0D4FA284638BDDE
:103E00001348238200F0CEFA4FF47A7001F072FF6B
:103E1000104800F0C7FA012038BD44F21A00FEF73E
:103E2000A7FC44F21A00FEF789FCD4E70A48E9E748
:103E30000A48E7E7B0060020580000209C00002058
:103E40009401002058040020F50300201494000879
:103E50006C9300084092000894930008BC930008FB
:103E60002DE9F04F00208FB0FFF7BCFA0020FFF7DC
:103E70007DFA0020FFF7E2F91D4D1E4C0021442081
:103E8000FDF798FB10EA05061AD1FDF799F801280D
:103E90002BD023780A2B0AD040F6B833E2899A4215
:103EA000ECD901231448E38100F07CFAE6E72670A0
:103EB00000F0AEFA40F6B833E2899A42DED9F0E774
:103EC00042041FD4002144200C4AFDF7DDFB40F6DC
:103ED000B833084CE2899A4204D901230648E381A9
:103EE00000F060FA064BC4F80A300FB0BDE8F08F5E
:103EF00000D02724B0060020289400080090272432
:103F00005A0001004FF4804200214420FDF7BCFB21
:103F100000214C20FDF74EFBC0F30901182940F2A7
:103F20005D810023C04D0A222846C049AB7004F0D1
:103F300032F90028CBD101F01FFBBD4BDFF8F4A212
:103F4000C318CAE900014FEA132441F1000144EA11
:103F50000164B94F2046FFF72DF8230297F824207B
:103F600023F4FF7323F00103240E002A00F03B81A9
:103F700043F6F2729B1844F10004B04EB048C6E913
:103F80000034DAE9002301F027FBD6E90023AD482D
:103F900001F022FB97F82130002B40F02A814FF4EA
:103FA000FA70FEF7D1FEDC20FFF7E0F90520FFF7FD
:103FB00019FAA54FA5493B78002214208B70FEF713
:103FC000F1FB012200211420FEF748FC0320FFF73B
:103FD0000BF8013000F018819D4C00214420FDF7C2
:103FE000E9FA2042F9D03B7801333B7043047FF576
:103FF00069AF4FF4814200214420FDF745FB0021C9
:104000004C20FDF7D7FAC0F30901182940F2FE80D1
:1040100000230A228F498448AB7004F0BCF8804624
:1040200000287FF454AF01F08BFAC6E9000101F0DB
:10403000A3FA894DDFF82492C5E9000188480BA94D
:1040400001F0B6FA87480CA901F0B2FA86480DA92A
:1040500001F0AEFADDE90B07381AFCF7C3F90246A6
:10406000D6F800B028681446A0EB0B000D46FCF70C
:10407000B9F902460D981646C01B0F46FCF7B2F977
:1040800002460B46DAF80000CDE90023ABEB000056
:10409000FCF7A8F93B46CDE9020132462046294605
:1040A000FCF71AFADDE9022382468B46DDE90001BE
:1040B000FCF712FA02460B4650465946FCF754F8F4
:1040C0003B4682468B46324620462946FCF74EF850
:1040D000DDE90023FCF74AF8DDE90223FCF746F8A6
:1040E00002460B4650465946FCF720FBFCF712FFF0
:1040F000FCF7C4F948A3D3E90023FCF7EDF948A382
:10410000D3E90023FCF7E8F999F800700446092F79
:104110000D4600F2B380554E7B1C06EBC707C7E97E
:104120000045DCB20022D6E90001002389F80040F6
:10413000FCF71CF8012C02460B4645D0D6E90223B9
:10414000FCF714F8022C02460B463DD0D6E90423B6
:10415000FCF70CF8032C02460B4635D0D6E90623B3
:10416000FCF704F8042C02460B462DD0D6E90823B0
:10417000FBF7FCFF052C02460B4625D0D6E90A23A7
:10418000FBF7F4FF062C02460B461DD0D6E90C23A4
:10419000FBF7ECFF072C02460B4615D0D6E90E23A1
:1041A000FBF7E4FF082C02460B460DD0D6E910239E
:1041B000FBF7DCFF0A2C02460B4605D1D6E9122399
:1041C000FBF7D4FF02460B462949C1E900232948E1
:1041D00000F0E8F80123284CE38183E6002212482E
:1041E000FEF7A6FB9DE644F21A029B1844F1000478
:1041F000C3E63C20FEF7A8FD41F28830FFF7B6F891
:104200000020FFF7EFF8D4E61B4C6BE600220648CF
:10421000FEF78EFBFCE600BFFA48CE3B1835B13DF9
:104220000000001319DDB141E804002090000020D7
:1042300068816D03E004002094010020D804002070
:10424000860000208A000020000500207C0000205D
:1042500000D0272464000020D0040020580400204F
:10426000F2040020F6040020FA040020600400207C
:1042700000040020B0040020B0060020434BD3E926
:104280000023FBF771FF0022414B21F00041FCF7B6
:1042900095FB00286FD0DFF8FCA03F4E3F4B7A1E05
:1042A00031465046D20083F8008004F000F8DAE985
:1042B0000289DAE906BCDAE90001B6466EE802894D
:1042C0000022CEE906BCCEE912450023CAE9124518
:1042D00046E90201DAE90467CDE900BCDAE908BC85
:1042E000CEE90467CEE908BCCDE902BCDAE90ABC34
:1042F000CEE90ABCCDE904BCDAE90CBCCEE90CBCC1
:10430000CDE906BCDAE90EBCCDE908BCCEE90EBCAD
:104310000AF1400BDBE900ABCEE910ABFBF726FF5F
:1043200042464B46FBF722FF32463B46FBF71EFF59
:10433000DDE90023FBF71AFFDDE90223FBF716FF97
:10434000DDE90423FBF712FFDDE90623FBF70EFF8F
:10435000DDE90823FBF70AFF52465B46FBF706FF41
:104360002B462246FBF702FF084BC3E900450C4BE6
:10437000C3E900012BE709490B780133DBB2142BA9
:1043800092BF0B70087089F8000020E7F803002046
:10439000000034400804002068040020F5030020D9
:1043A0000004002010B50446FBF7D2FE0246214669
:1043B000BDE810404FF6FF73014892B203F0B2BA65
:1043C000700500200C4B02689A4200D070470B4ADF
:1043D0000B4813880B4903F1010C0078A2F800C0C8
:1043E000094AD0548B790BB901238B7101220449FE
:1043F000064803F03BBB00BF003801400205002027
:1044000068050020B006002004050020700500208B
:1044100040F606430F4A926803EA020093430E4BAC
:104420000DD05A78D10709D4598881B1132905D9FB
:1044300042F001025A70988001F00EB870475A7825
:1044400006496FF30002C3F802105A707047012248
:104450005A807047000C0140B00600200000060C96
:104460000023012230B5012091B04FF480310224A5
:10447000CDE90B33CDE90233CDE904330893019341
:104480000A9209934FF480324FF40023CDE90601DC
:1044900006A8CDE90E230D9402F0CAF808B172B651
:1044A000FEE703460F254FF48062214601A80294DF
:1044B000039305930195049202F0A8FA08B172B62D
:1044C000FEE711B030BD00BF80B58AB001F056FDE7
:1044D00002F03EF801F086FDFFF7C2FF0122002442
:1044E00015464FF48058CDE90644CDE90844684BA1
:1044F00010219E69674846F020069E619E694FF034
:10450000030A06F020060196019E9E694FF4827907
:1045100046F004069E619E694FF4007706F004069B
:104520000296029E9E6946F008069E619B690A26D5
:1045300003F008030393039B02F006F82A46414662
:10454000554802F001F81023524806A90693CDE918
:104550000755CDF824A001F04BFE002340F607429A
:104560004D4806A9CDE90623089501F041FE4A48C9
:1045700006A9CDE90685CDF824A0089501F038FEFE
:1045800008234648C361464BC0E90194C0E903448F
:10459000C0E90547C0E90844C0E90A46036002F0E3
:1045A00083FB08B172B6FEE703463E48C0E902331A
:1045B000C0E90433C0E90733C0E909333A4BC0F816
:1045C00004908761C662036002F06EFB08B172B6A8
:1045D000FEE740F23F139F22344CCDE90600E36032
:1045E000334BCDE90800CDE90400A0602061A06153
:1045F00020466260236002F003FF08B172B6FEE756
:10460000204606A9CDF8188002F08CFF08B172B6DA
:10461000FEE700220023204604A9CDE9042303F08D
:10462000DDF8064608B172B6FEE7204602F050FFFC
:104630000C234FF4E1321F4C63611F4B2046C4E949
:104640000266C4E9066626616260236003F0FCF836
:10465000064608B172B6FEE720462A46174903F01F
:1046600005FA174C0CE0FCF7ABFC237A012B03D1C5
:104670006369267203B19847FFF7A4F8FFF734F98E
:1046800023780A2BEFD12670FFF7C2FEEBE700BFBD
:104690000010024000080140000C014058060020B4
:1046A000003001400006002000380040B80500201E
:1046B0000008004070050020003801406805002017
:1046C000B0060020023808B50E280FD8DFE800F049
:1046D0000F2436476B587C0E0E0E0E0E0E0E080081
:1046E000002900F06081012900F0308108BD002917
:1046F00040F08680B14B1B78002B00F01C81012B11
:10470000F4D1AF48FFF74EFEAE48FFF74BFEBDE8D1
:104710000840AD48FFF746BE002940F08C80A74B0B
:104720001B78002B00F0FF80012BDFD1A748FFF79B
:1047300039FEBDE80840A648FFF734BE00294DD138
:104740009E4B1B78002B00F0E680012BCED1A148B8
:10475000FFF728FEBDE808409F48FFF723BE002969
:104760007CD1964B1B78002B00F0C580012BBDD16E
:104770009A48FFF717FEBDE808409948FFF712BEB8
:10478000002900F0158101390A29AFD8DFE811F0BE
:10479000F200ED0006010101FC00F700E800E30073
:1047A000A900A4009F0000296BD1844B1B78002B2B
:1047B00000F0A980012B99D18A48FFF7F3FDBDE8ED
:1047C00008408948FFF7EEBD002900F0C480013998
:1047D00003298BD8DFE801F085807B8A012985D108
:1047E000764B1B78002B00F07281012B7FF47EAF9B
:1047F0007E48FFF7D7FDBDE808407D48FFF7D2BDF2
:10480000012951D0022900F03D8103297FF46EAFC8
:104810006A4B1B78002B00F07D81012B7FF466AF83
:104820007448FFF7BFFD7448FFF7BCFDBDE80840C2
:104830007248FFF7B7BD01297FF458AF5F4B1B7873
:10484000002B00F03C81012B7FF450AF6C48FFF748
:10485000A9FDBDE808406B48FFF7A4BD01297FF41E
:1048600045AF564B1B78002B00F04181012B7FF4A4
:104870003DAF6548FFF796FDBDE808406348FFF788
:1048800091BD01297FF432AF4C4B1B78002B00F017
:104890002681012B7FF42AAF5D48FFF783FDBDE839
:1048A00008405C48FFF77EBD444B1B78002B00F0AE
:1048B000FB80012B7FF41AAF5048FFF773FD564879
:1048C000FFF770FDBDE808404A48FFF76BBD53484D
:1048D000BDE80840FFF766BD5148BDE80840FFF756
:1048E00061BD5048BDE80840FFF75CBD4E48BDE8DB
:1048F0000840FFF757BD4D48FFF754FDBDE808409D
:104900004B48FFF74FBD4B48FFF74CFDBDE8084053
:104910004948FFF747BD4948FFF744FDBDE8084057
:104920004748FFF73FBD4748FFF73CFDBDE808405B
:104930004548FFF737BD4548FFF734FD4448FFF7CA
:1049400031FDBDE808404348FFF72CBD4248BDE8B3
:104950000840FFF727BD4148BDE80840FFF722BDEA
:104960003F48BDE80840FFF71DBD3E48BDE8084090
:10497000FFF718BD3C48BDE80840FFF713BD3B48B2
:10498000BDE80840FFF70EBD3948BDE80840FFF715
:1049900009BD3848BDE80840FFF704BD3648BDE80A
:1049A0000840FFF7FFBC3548BDE80840FFF7FABCF8
:1049B0003348BDE80840FFF7F5BC00BFC80600203B
:1049C0007494000884940008949400086495000886
:1049D00074950008E4950008F495000864960008B2
:1049E00074960008E4960008F496000824960008DF
:1049F00034960008F494000834950008D494000814
:104A0000A4950008B4950008A4960008B496000880
:104A10002497000834970008E4940008F4970008ED
:104A2000E4970008D497000804980008449600080A
:104A300054960008C4960008D4960008C49500084F
:104A4000D495000844950008549500084494000843
:104A5000549400086494000824980008C49700083F
:104A6000B49700086497000854970008A4970008BA
:104A70009497000884970008749700081498000819
:104A800044970008294B1B78002B38D0012B7FF46A
:104A90002DAE2748FFF786FC2648FFF783FCBDE8CC
:104AA00008402548FFF77EBC2448FFF77BFC2448DC
:104AB000FFF778FCBDE808402248FFF773BC2248A6
:104AC000FFF770FCBDE808402048FFF76BBC2048AA
:104AD000FFF768FCBDE808401E48FFF763BC1E48AE
:104AE000FFF760FCBDE808401C48FFF75BBC1C48B2
:104AF000FFF758FCBDE808401A48FFF753BC1A48B6
:104B0000FFF750FC1948FFF74DFCBDE80840184876
:104B1000FFF748BC0B48FFF745FC1648FFF742FC7F
:104B2000BDE808400548FFF73DBC00BFC8060020AF
:104B3000949400081495000874940008A494000844
:104B4000B4940008C4940008849500089495000863
:104B500004960008149600080497000814970008AB
:104B60008496000894960008649400080495000850
:104B7000449400082495000808B540F60243984282
:104B800027D040F60443984214D040F606039842DA
:104B900000D008BD524B9B78002B4FD0012B7FD00B
:104BA000022B00F08D80032BF3D1BDE808404D4867
:104BB000FFF7F8BB4A4A9378013BDBB2FF2B9370B7
:104BC00051D07BB1012B1DD0022B3CD0032B4CD0FC
:104BD00008BD434A93780133DBB2042B9370F0D1C4
:104BE00000239370404B1B78EBB1012BD1D13F4890
:104BF000FFF7D8FB3E48FFF7D5FBBDE808403D482E
:104C0000FFF7D0BB384B1B78002B4ED0012BC0D107
:104C10003948FFF7C7FB3948FFF7C4FBBDE8084038
:104C20003748FFF7BFBB3748FFF7BCFB3648FFF7F5
:104C3000B9FBBDE808403548FFF7B4BB3448BDE8D0
:104C40000840FFF7AFBB284B1B78F3B1012BA0D175
:104C50002848FFF7A7FB2F48FFF7A4FBBDE8084053
:104C60002248FFF79FBB032393701F4B1B7863B34E
:104C7000012B8ED12248FFF795FB2748FFF792FBC7
:104C8000BDE808401C48FFF78DBB2048FFF78AFBB2
:104C90002248FFF787FBBDE808401A48FFF782BBB0
:104CA0001F48BDE80840FFF77DBB1E48FFF77AFBB1
:104CB0001D48FFF777FBBDE808401C48FFF772BBB3
:104CC0001B48BDE80840FFF76DBB1848FFF76AFBBB
:104CD0001848FFF767FBBDE808401248FFF762BBC2
:104CE000CC06002054970008C806002074940008E1
:104CF0008494000894940008D4940008E494000874
:104D0000F494000844940008549400086494000843
:104D1000349800081495000834950008049500089C
:104D200024980008A4940008B4940008C4940008CF
:104D3000449700082495000808B540F602439842BD
:104D40002BD00ED840F2064398423CD040F60603E2
:104D5000984205D12D4BDB78002B39D0012B47D061
:104D600008BD40F604439842FAD1284AD378013B63
:104D7000DBB2FF2BD37038D0C3B1012BF0D1244B61
:104D80001B78002B39D0012BEAD12248FFF70AFB10
:104D9000BDE808402048FFF705BB1C4AD378013323
:104DA000DBB2022BD370E7D10023D370184B1B78F2
:104DB0009BB1012BD4D11948FFF7F4FABDE80840A4
:104DC0001748FFF7EFBA1748BDE80840FFF7EABAFF
:104DD0001548BDE80840FFF7E5BA1448FFF7E2FAC6
:104DE000BDE808401248FFF7DDBA0123D370C6E7DB
:104DF0001048BDE80840FFF7D5BA0F48FFF7D2FAD0
:104E0000BDE808400D48FFF7CDBA00BFCC06002032
:104E1000C8060020A4950008B49500086495000811
:104E200074950008249800084498000844950008E8
:104E3000549500083498000884950008949500085B
:104E400008B540F6024398422BD00ED840F20643F4
:104E500098423CD040F60603984205D12D4B1B7971
:104E6000002B39D0012B47D008BD40F604439842AF
:104E7000FAD1284A1379013BDBB2FF2B137138D0EA
:104E8000C3B1012BF0D1244B1B78002B39D0012B5F
:104E9000EAD12248FFF786FABDE808402048FFF72C
:104EA00081BA1C4A13790133DBB2022B1371E7D1AB
:104EB00000231371184B1B789BB1012BD4D11948D7
:104EC000FFF770FABDE808401748FFF76BBA1748BC
:104ED000BDE80840FFF766BA1548BDE80840FFF78F
:104EE00061BA1448FFF75EFABDE808401248FFF7C0
:104EF00059BA01231371C6E71048BDE80840FFF70F
:104F000051BA0F48FFF74EFABDE808400D48FFF7C9
:104F100049BA00BFCC060020C8060020249600082D
:104F200034960008E4950008F495000824980008D9
:104F300044980008C4950008D495000834980008E7
:104F4000049600081496000808B540F602439842FB
:104F50002BD00ED840F2064398423CD040F60603D0
:104F6000984205D12D4B5B79002B39D0012B47D0CE
:104F700008BD40F604439842FAD1284A5379013BD0
:104F8000DBB2FF2B537138D0C3B1012BF0D1244BCE
:104F90001B78002B39D0012BEAD12248FFF702FA07
:104FA000BDE808402048FFF7FDB91C4A537901339A
:104FB000DBB2022B5371E7D100235371184B1B78DE
:104FC0009BB1012BD4D11948FFF7ECF9BDE808409B
:104FD0001748FFF7E7B91748BDE80840FFF7E2B9FF
:104FE0001548BDE80840FFF7DDB91448FFF7DAF9C6
:104FF000BDE808401248FFF7D5B901235371C6E751
:105000001048BDE80840FFF7CDB90F48FFF7CAF9CF
:10501000BDE808400D48FFF7C5B900BFCC06002029
:10502000C8060020A4960008B496000864960008FC
:1050300074960008249800084498000844960008D4
:105040005496000834980008849600089496000846
:1050500008B540F6024398422BD00ED840F20643E2
:1050600098423CD040F60603984205D12D4B9B79DF
:10507000002B39D0012B47D008BD40F6044398429D
:10508000FAD1284A9379013BDBB2FF2B937138D0D8
:10509000C3B1012BF0D1244B1B78002B39D0012B4D
:1050A000EAD12248FFF77EF9BDE808402048FFF723
:1050B00079B91C4A93790133DBB2022B9371E7D1A2
:1050C00000239371184B1B789BB1012BD4D1194845
:1050D000FFF768F9BDE808401748FFF763B91748BC
:1050E000BDE80840FFF75EB91548BDE80840FFF786
:1050F00059B91448FFF756F9BDE808401248FFF7C0
:1051000051B901239371C6E71048BDE80840FFF785
:1051100049B90F48FFF746F9BDE808400D48FFF7C9
:1051200041B900BFCC060020C80600202497000823
:1051300034970008E4960008F496000824980008C4
:1051400034980008C4960008D496000844980008D3
:10515000049700081497000840F6024398422FD0A5
:1051600016D840F20643984236D040F606039842DD
:105170007CD13F4BDB79002B31D0013B0A2B1ED871
:10518000DFE803F0716E6B685C595653625F65002F
:1051900040F60443984212D1354AD379013BDBB241
:1051A000FF2BD3711ED0A3B1013B0A2B07D8DFE838
:1051B00003F0211E24272A2D303339361B00704777
:1051C0002B4AD3790133DBB20C2BD371EBD1002303
:1051D000D3712848FFF7E6B82748FFF7E3B8274818
:1051E000FFF7E0B80B23D3712548FFF7DBB825485C
:1051F000FFF7D8B82448FFF7D5B82448FFF7D2B84E
:105200002348FFF7CFB82348FFF7CCB82248FFF771
:10521000C9B82248FFF7C6B82148FFF7C3B82148EC
:10522000FFF7C0B82048FFF7BDB82048FFF7BAB86D
:105230001F48FFF7B7B81F48FFF7B4B81E48FFF77D
:10524000B1B81E48FFF7AEB81D48FFF7ABB81D4810
:10525000FFF7A8B81C48FFF7A5B81C48FFF7A2B88D
:105260001B48FFF79FB81B48FFF79CB8704700BF6B
:10527000CC060020449700082498000854980008A1
:10528000F497000864970008549700087497000882
:105290008497000894970008A4970008B497000822
:1052A000C4970008E4970008D497000844980008C1
:1052B000C4980008B4980008A4980008149800083E
:1052C00034980008D498000894980008849800083E
:1052D000749800086498000840F60243984226D06B
:1052E00011D840F2064398422DD040F6060398426A
:1052F00049D1254B1B7A4BB3013B032B16D8DFE872
:1053000003F03F3C393640F6044398420ED11E4A22
:10531000137A013BDBB2FF2B13721AD083B1013B2E
:10532000032B03D8DFE803F01D201A177047164A35
:10533000137A0133DBB2052B1372EFD10023137202
:105340001248FFF72FB81248FFF72CB81148FFF7A3
:1053500029B8042313721048FFF724B80F48FFF749
:1053600021B80F48FFF71EB80E48FFF71BB80E48CC
:10537000FFF718B80D48FFF715B80D48FFF712B83A
:105380000C48FFF70FB87047CC060020C497000800
:1053900024980008B497000804980008F4970008BF
:1053A000D4970008E4970008449800087497000810
:1053B000549700081498000840F60243984222D0FF
:1053C0000DD840F2064398421AD040F606039842A0
:1053D00032D11A4B1B7C2BB3012B28D0704740F6DF
:1053E00004439842FAD1154A137C0133DBB2022BF5
:1053F000137412D09BB1012BF0D11148FEF7D2BF2C
:105400001048FEF7CFBF0D4A137C013BDBB2FF2BE8
:105410001374EFD101231374EFE7002313740A48C8
:10542000FEF7C0BF094A0A481370FEF7BBBF074A20
:1054300008481370FEF7B6BF704700BFCC060020C7
:10544000249800084092000814980008C80600201C
:1054500034980008449800082D4B1B78022B0BD081
:10546000033B0D2B20D8DFE803F00B0D0F111315B4
:105470001720293B32441F09FFF77EBBFFF79CBF73
:10548000FFF75ABCFFF7DCBCFFF75EBDFFF7E0BDDE
:10549000FFF762BEFFF720BF40F20643984234D0C8
:1054A00040F6060398422DD0704740F206439842DA
:1054B0002BD040F60603984224D0704740F20643B2
:1054C000984222D040F6060398421BD0704740F223
:1054D0000643984219D040F60603984212D070470E
:1054E00040F20643984210D040F60603984209D095
:1054F000704740F20643984207D040F606039842B0
:1055000000D070470348FEF74DBF0348FEF74ABF7F
:10551000AC000020449800082498000800230B6089
:1055200003780B60427803EB02230B60827803EB75
:1055300002430B60C27803EB02630B60704700BF4D
:1055400000B583B06846FDF719FB9DF804009DF88F
:1055500003209DF8021042EA00229DF8013041EA42
:1055600002219DF8000043EA012340EA0320090CD0
:1055700003B05DF804FB00BF00B583B06846FDF7DB
:1055800041FB9DF804009DF803209DF8021042EABB
:1055900000229DF8013041EA02219DF8000043EA13
:1055A000012340EA0320090C03B05DF804FB00BFAF
:1055B00000230B6003780B60427803EB02230B603F
:1055C000827803EB02430B60C27803EB02630B604B
:1055D000704700BF026070470260704738B500F046
:1055E0009DFB022000F086FB0123264D2B8205E067
:1055F000FBF7E6FC2B8AB3F5967F31D8FDF70CFC60
:1056000004460028F4D000202882FCF76FF801300F
:1056100033D004201C4A1D49FBF734FE1B48FCF71D
:1056200085FC044658BB1848FEF75EF80720FCF7D7
:1056300069F92046FCF736F944F20100FDF77EF8DF
:1056400044F20100FDF794F80320FDF729FC10480F
:10565000FEF7A8FE0F4A104B204614801C8038BD70
:105660000E482C82FEF79EFE4FF47A7000F042FB4B
:105670000B48FEF797FE012038BD0A48F2E70A48BA
:10568000F0E700BFB0060020B0000020D4000020EA
:10569000E4980008F4060020F20600206C9300084D
:1056A0004092000894930008BC93000870B5002055
:1056B000FDF7C4FD3F4C404E06E0FBF781FC01289E
:1056C00014D033780A2B6CD000214420FBF772FFF2
:1056D00010EA0405F1D010F4804108D14420374A83
:1056E000FBF7D2FF344B364AC3F80A2070BD0021C5
:1056F0004C20FBF75FFF334CC0F3090110F46072DC
:10570000218052D04FF4804200214420FBF7BCFF9F
:1057100023880E2BE6D12C4C2378C52BE2D1A37A1B
:10572000432BDFD1E37A022BDCD1284B28491A889E
:105730002848013292B21A8002F0CAFC2548FEF7CE
:1057400031FE254BD4F80600D4F80250591F58609A
:10575000002215201D60FDF725F8002215201146B6
:10576000FDF77CF80020FDF73FFC00214420FBF70B
:1057700021FF0306F9D5194B19491A88154801323A
:1057800092B21A8002F0A4FC1248FEF70BFE8022AF
:1057900000214420FBF778FF124A9378013393707D
:1057A000A0E73570FEF734FE8EE70748FDF7C0F836
:1057B000A8E700BF00D00524B00600200090052413
:1057C000DE030100F6060020F8060020F2060020A5
:1057D000F8980008E0060020C1000020F406002030
:1057E00008990008BC00002010B500F097FA0220CC
:1057F00000F080FA0123284C238203E0228AB2F5CC
:10580000967F38D8FDF708FB03460028F6D0002025
:105810002082FBF76BFF01303AD003201F4A20495A
:10582000FBF730FD1E48FCF781FB044690BB0720C8
:10583000FCF768F82046FCF735F844F20100FCF765
:105840007DFF44F20100FCF793FF0320FDF728FBE6
:105850001248FDF749FF3C20FDF776FA4CF2503034
:10586000FDF784FD0F48FEF79DFD0F4A0F4B2046C4
:1058700014801C8010BD0E482382FEF793FD4FF468
:105880007A7000F037FA0B48FEF78CFD012010BD4E
:105890000948F2E70948F0E7B0060020E4000020DC
:1058A00000010020189900088C0700208A070020BA
:1058B0006C9300084092000894930008BC93000881
:1058C00010B500222A490E20FCF76CFF00220E20A2
:1058D0001146FCF7C3FF274B27491A882748013296
:1058E00092B21A8002F0F4FB2448FEF75BFD02201E
:1058F000234CFDF779FB00214420FBF75BFE20429F
:10590000F9D010F480412DD07F2200211D4802F0F3
:1059100052FC00214C20FBF74DFE10F4607281B266
:105920000ED04FF4804200214420FBF7ADFE104A18
:1059300015495378154801335370C1F80A0010BD5A
:105940001048C1F30901FCF7F3FF114B11491A8804
:105950000A48013292B21A8002F0BAFB0748FEF7F9
:1059600021FDDEE744200C4AFBF78EFEDFE700BF97
:10597000F00000208C0700202C99000878070020F8
:1059800000D0272490070020B0060020E803010083
:105990008A07002044990008009027240E4B82B00B
:1059A0009A690E4942F001029A619A6902F0010275
:1059B0000092009ADA6942F08052DA61DB6903F002
:1059C00080530193019B4B6823F0E06343F0007325
:1059D0004B6002B0704700BF001002400000014061
:1059E000D0B500242F4A036888B09342CDE904441F
:1059F000CDE9064404D02C4A934229D008B0D0BD4A
:105A00002A4BA0269A69022742F480529A619A6929
:105A100004A902F480520092009A9A69244842F044
:105A200004029A619B69CDE9046703F004030193C2
:105A30000323019A079300F0DBFB402200231C485C
:105A400004A9CDE90423069400F0D2FB08B0D0BD30
:105A5000164B4FF42046DA69022742F48042DA619D
:105A6000DA6904A902F480420292029A9A69114802
:105A700042F008029A619B69CDE9046703F00803CC
:105A800003930323039A079300F0B2FB4FF4804281
:105A90000023084804A9CDE90423069400F0A8FBDC
:105AA00008B0D0BD00300140003800400010024076
:105AB00000080140000C01400E4B02689A4200D0E1
:105AC0007047002203F50233D96900B541F00401A3
:105AD000D961DB6983B003F0040301931E201146F2
